{
    "abi": [
        {
            "type": "constructor",
            "inputs": [
                {
                    "name": "depth",
                    "type": "uint32",
                    "internalType": "uint32"
                },
                {
                    "name": "hasher",
                    "type": "address",
                    "internalType": "contract Poseidon2"
                },
                {
                    "name": "stableOneAddress",
                    "type": "address",
                    "internalType": "address"
                },
                {
                    "name": "stableTwoAddress",
                    "type": "address",
                    "internalType": "address"
                },
                {
                    "name": "_ztomic_ccip_router",
                    "type": "address",
                    "internalType": "address"
                },
                {
                    "name": "_linkTokenAddress",
                    "type": "address",
                    "internalType": "address"
                },
                {
                    "name": "_destinationChainSelector",
                    "type": "uint64",
                    "internalType": "uint64"
                },
                {
                    "name": "_verifierA",
                    "type": "address",
                    "internalType": "address"
                },
                {
                    "name": "_verifierB",
                    "type": "address",
                    "internalType": "address"
                }
            ],
            "stateMutability": "nonpayable"
        },
        {
            "type": "receive",
            "stateMutability": "payable"
        },
        {
            "type": "function",
            "name": "FIELD_SIZE",
            "inputs": [],
            "outputs": [
                {
                    "name": "",
                    "type": "uint256",
                    "internalType": "uint256"
                }
            ],
            "stateMutability": "view"
        },
        {
            "type": "function",
            "name": "ROOT_HISTORY_SIZE",
            "inputs": [],
            "outputs": [
                {
                    "name": "",
                    "type": "uint32",
                    "internalType": "uint32"
                }
            ],
            "stateMutability": "view"
        },
        {
            "type": "function",
            "name": "SHARED_ROOT_HISTORY_SIZE",
            "inputs": [],
            "outputs": [
                {
                    "name": "",
                    "type": "uint32",
                    "internalType": "uint32"
                }
            ],
            "stateMutability": "view"
        },
        {
            "type": "function",
            "name": "SWAP_DENOMINATION",
            "inputs": [],
            "outputs": [
                {
                    "name": "",
                    "type": "uint64",
                    "internalType": "uint64"
                }
            ],
            "stateMutability": "view"
        },
        {
            "type": "function",
            "name": "ZERO_ELEMENT",
            "inputs": [],
            "outputs": [
                {
                    "name": "",
                    "type": "bytes32",
                    "internalType": "bytes32"
                }
            ],
            "stateMutability": "view"
        },
        {
            "type": "function",
            "name": "acceptOwnership",
            "inputs": [],
            "outputs": [],
            "stateMutability": "nonpayable"
        },
        {
            "type": "function",
            "name": "allowlistDestinationChain",
            "inputs": [
                {
                    "name": "_destinationChainSelector",
                    "type": "uint64",
                    "internalType": "uint64"
                },
                {
                    "name": "allowed",
                    "type": "bool",
                    "internalType": "bool"
                }
            ],
            "outputs": [],
            "stateMutability": "nonpayable"
        },
        {
            "type": "function",
            "name": "allowlistSender",
            "inputs": [
                {
                    "name": "_sender",
                    "type": "address",
                    "internalType": "address"
                },
                {
                    "name": "allowed",
                    "type": "bool",
                    "internalType": "bool"
                }
            ],
            "outputs": [],
            "stateMutability": "nonpayable"
        },
        {
            "type": "function",
            "name": "allowlistSourceChain",
            "inputs": [
                {
                    "name": "_sourceChainSelector",
                    "type": "uint64",
                    "internalType": "uint64"
                },
                {
                    "name": "allowed",
                    "type": "bool",
                    "internalType": "bool"
                }
            ],
            "outputs": [],
            "stateMutability": "nonpayable"
        },
        {
            "type": "function",
            "name": "allowlistedDestinationChains",
            "inputs": [
                {
                    "name": "",
                    "type": "uint64",
                    "internalType": "uint64"
                }
            ],
            "outputs": [
                {
                    "name": "",
                    "type": "bool",
                    "internalType": "bool"
                }
            ],
            "stateMutability": "view"
        },
        {
            "type": "function",
            "name": "allowlistedSenders",
            "inputs": [
                {
                    "name": "",
                    "type": "address",
                    "internalType": "address"
                }
            ],
            "outputs": [
                {
                    "name": "",
                    "type": "bool",
                    "internalType": "bool"
                }
            ],
            "stateMutability": "view"
        },
        {
            "type": "function",
            "name": "allowlistedSourceChains",
            "inputs": [
                {
                    "name": "",
                    "type": "uint64",
                    "internalType": "uint64"
                }
            ],
            "outputs": [
                {
                    "name": "",
                    "type": "bool",
                    "internalType": "bool"
                }
            ],
            "stateMutability": "view"
        },
        {
            "type": "function",
            "name": "ccipReceive",
            "inputs": [
                {
                    "name": "message",
                    "type": "tuple",
                    "internalType": "struct Client.Any2EVMMessage",
                    "components": [
                        {
                            "name": "messageId",
                            "type": "bytes32",
                            "internalType": "bytes32"
                        },
                        {
                            "name": "sourceChainSelector",
                            "type": "uint64",
                            "internalType": "uint64"
                        },
                        {
                            "name": "sender",
                            "type": "bytes",
                            "internalType": "bytes"
                        },
                        {
                            "name": "data",
                            "type": "bytes",
                            "internalType": "bytes"
                        },
                        {
                            "name": "destTokenAmounts",
                            "type": "tuple[]",
                            "internalType": "struct Client.EVMTokenAmount[]",
                            "components": [
                                {
                                    "name": "token",
                                    "type": "address",
                                    "internalType": "address"
                                },
                                {
                                    "name": "amount",
                                    "type": "uint256",
                                    "internalType": "uint256"
                                }
                            ]
                        }
                    ]
                }
            ],
            "outputs": [],
            "stateMutability": "nonpayable"
        },
        {
            "type": "function",
            "name": "deposit_initiator",
            "inputs": [
                {
                    "name": "_commitment",
                    "type": "bytes32",
                    "internalType": "bytes32"
                },
                {
                    "name": "_order_id_hash",
                    "type": "bytes32",
                    "internalType": "bytes32"
                },
                {
                    "name": "_hashlock",
                    "type": "bytes32",
                    "internalType": "bytes32"
                },
                {
                    "name": "_crossChain",
                    "type": "bool",
                    "internalType": "bool"
                },
                {
                    "name": "_destinationZtomicAddress",
                    "type": "address",
                    "internalType": "address"
                }
            ],
            "outputs": [],
            "stateMutability": "nonpayable"
        },
        {
            "type": "function",
            "name": "deposit_responder",
            "inputs": [
                {
                    "name": "_commitment",
                    "type": "bytes32",
                    "internalType": "bytes32"
                },
                {
                    "name": "_crossChain",
                    "type": "bool",
                    "internalType": "bool"
                },
                {
                    "name": "_destinationZtomicAddress",
                    "type": "address",
                    "internalType": "address"
                }
            ],
            "outputs": [],
            "stateMutability": "nonpayable"
        },
        {
            "type": "function",
            "name": "destinationChainSelectors",
            "inputs": [
                {
                    "name": "",
                    "type": "uint256",
                    "internalType": "uint256"
                }
            ],
            "outputs": [
                {
                    "name": "",
                    "type": "uint64",
                    "internalType": "uint64"
                }
            ],
            "stateMutability": "view"
        },
        {
            "type": "function",
            "name": "getLastReceivedMessageDetails",
            "inputs": [],
            "outputs": [
                {
                    "name": "messageId",
                    "type": "bytes32",
                    "internalType": "bytes32"
                },
                {
                    "name": "data",
                    "type": "bytes32",
                    "internalType": "bytes32"
                },
                {
                    "name": "tokenAddress",
                    "type": "address",
                    "internalType": "address"
                },
                {
                    "name": "tokenAmount",
                    "type": "uint256",
                    "internalType": "uint256"
                }
            ],
            "stateMutability": "view"
        },
        {
            "type": "function",
            "name": "getLatestRoot",
            "inputs": [],
            "outputs": [
                {
                    "name": "",
                    "type": "bytes32",
                    "internalType": "bytes32"
                }
            ],
            "stateMutability": "view"
        },
        {
            "type": "function",
            "name": "getRouter",
            "inputs": [],
            "outputs": [
                {
                    "name": "",
                    "type": "address",
                    "internalType": "address"
                }
            ],
            "stateMutability": "view"
        },
        {
            "type": "function",
            "name": "hashLeftRight",
            "inputs": [
                {
                    "name": "_left",
                    "type": "bytes32",
                    "internalType": "bytes32"
                },
                {
                    "name": "_right",
                    "type": "bytes32",
                    "internalType": "bytes32"
                }
            ],
            "outputs": [
                {
                    "name": "",
                    "type": "bytes32",
                    "internalType": "bytes32"
                }
            ],
            "stateMutability": "view"
        },
        {
            "type": "function",
            "name": "i_depth",
            "inputs": [],
            "outputs": [
                {
                    "name": "",
                    "type": "uint32",
                    "internalType": "uint32"
                }
            ],
            "stateMutability": "view"
        },
        {
            "type": "function",
            "name": "i_hasher",
            "inputs": [],
            "outputs": [
                {
                    "name": "",
                    "type": "address",
                    "internalType": "contract Poseidon2"
                }
            ],
            "stateMutability": "view"
        },
        {
            "type": "function",
            "name": "isKnownRoot",
            "inputs": [
                {
                    "name": "_root",
                    "type": "bytes32",
                    "internalType": "bytes32"
                }
            ],
            "outputs": [
                {
                    "name": "",
                    "type": "bool",
                    "internalType": "bool"
                }
            ],
            "stateMutability": "view"
        },
        {
            "type": "function",
            "name": "isKnownSharedRoot",
            "inputs": [
                {
                    "name": "_root",
                    "type": "bytes32",
                    "internalType": "bytes32"
                }
            ],
            "outputs": [
                {
                    "name": "",
                    "type": "bool",
                    "internalType": "bool"
                }
            ],
            "stateMutability": "view"
        },
        {
            "type": "function",
            "name": "owner",
            "inputs": [],
            "outputs": [
                {
                    "name": "",
                    "type": "address",
                    "internalType": "address"
                }
            ],
            "stateMutability": "view"
        },
        {
            "type": "function",
            "name": "s_cachedSubtrees",
            "inputs": [
                {
                    "name": "",
                    "type": "uint256",
                    "internalType": "uint256"
                }
            ],
            "outputs": [
                {
                    "name": "",
                    "type": "bytes32",
                    "internalType": "bytes32"
                }
            ],
            "stateMutability": "view"
        },
        {
            "type": "function",
            "name": "s_currentRootIndex",
            "inputs": [],
            "outputs": [
                {
                    "name": "",
                    "type": "uint32",
                    "internalType": "uint32"
                }
            ],
            "stateMutability": "view"
        },
        {
            "type": "function",
            "name": "s_currentSharedRootIndex",
            "inputs": [],
            "outputs": [
                {
                    "name": "",
                    "type": "uint32",
                    "internalType": "uint32"
                }
            ],
            "stateMutability": "view"
        },
        {
            "type": "function",
            "name": "s_initiator_commitments",
            "inputs": [
                {
                    "name": "",
                    "type": "bytes32",
                    "internalType": "bytes32"
                }
            ],
            "outputs": [
                {
                    "name": "",
                    "type": "bool",
                    "internalType": "bool"
                }
            ],
            "stateMutability": "view"
        },
        {
            "type": "function",
            "name": "s_nextLeafIndex",
            "inputs": [],
            "outputs": [
                {
                    "name": "",
                    "type": "uint32",
                    "internalType": "uint32"
                }
            ],
            "stateMutability": "view"
        },
        {
            "type": "function",
            "name": "s_nullifierHashes",
            "inputs": [
                {
                    "name": "",
                    "type": "bytes32",
                    "internalType": "bytes32"
                }
            ],
            "outputs": [
                {
                    "name": "",
                    "type": "bool",
                    "internalType": "bool"
                }
            ],
            "stateMutability": "view"
        },
        {
            "type": "function",
            "name": "s_responder_commitments",
            "inputs": [
                {
                    "name": "",
                    "type": "bytes32",
                    "internalType": "bytes32"
                }
            ],
            "outputs": [
                {
                    "name": "",
                    "type": "bool",
                    "internalType": "bool"
                }
            ],
            "stateMutability": "view"
        },
        {
            "type": "function",
            "name": "s_roots",
            "inputs": [
                {
                    "name": "",
                    "type": "uint256",
                    "internalType": "uint256"
                }
            ],
            "outputs": [
                {
                    "name": "",
                    "type": "bytes32",
                    "internalType": "bytes32"
                }
            ],
            "stateMutability": "view"
        },
        {
            "type": "function",
            "name": "s_sharedNullifierHashes",
            "inputs": [
                {
                    "name": "",
                    "type": "bytes32",
                    "internalType": "bytes32"
                }
            ],
            "outputs": [
                {
                    "name": "",
                    "type": "bool",
                    "internalType": "bool"
                }
            ],
            "stateMutability": "view"
        },
        {
            "type": "function",
            "name": "s_sharedRootsMapping",
            "inputs": [
                {
                    "name": "",
                    "type": "uint32",
                    "internalType": "uint32"
                }
            ],
            "outputs": [
                {
                    "name": "",
                    "type": "bytes32",
                    "internalType": "bytes32"
                }
            ],
            "stateMutability": "view"
        },
        {
            "type": "function",
            "name": "s_stableOne",
            "inputs": [],
            "outputs": [
                {
                    "name": "",
                    "type": "address",
                    "internalType": "contract IERC20"
                }
            ],
            "stateMutability": "view"
        },
        {
            "type": "function",
            "name": "s_stableTwo",
            "inputs": [],
            "outputs": [
                {
                    "name": "",
                    "type": "address",
                    "internalType": "contract IERC20"
                }
            ],
            "stateMutability": "view"
        },
        {
            "type": "function",
            "name": "supportsInterface",
            "inputs": [
                {
                    "name": "interfaceId",
                    "type": "bytes4",
                    "internalType": "bytes4"
                }
            ],
            "outputs": [
                {
                    "name": "",
                    "type": "bool",
                    "internalType": "bool"
                }
            ],
            "stateMutability": "pure"
        },
        {
            "type": "function",
            "name": "transferOwnership",
            "inputs": [
                {
                    "name": "to",
                    "type": "address",
                    "internalType": "address"
                }
            ],
            "outputs": [],
            "stateMutability": "nonpayable"
        },
        {
            "type": "function",
            "name": "verifierA",
            "inputs": [],
            "outputs": [
                {
                    "name": "",
                    "type": "address",
                    "internalType": "contract IVerifier"
                }
            ],
            "stateMutability": "view"
        },
        {
            "type": "function",
            "name": "verifierB",
            "inputs": [],
            "outputs": [
                {
                    "name": "",
                    "type": "address",
                    "internalType": "contract IVerifier"
                }
            ],
            "stateMutability": "view"
        },
        {
            "type": "function",
            "name": "withdraw",
            "inputs": [
                {
                    "name": "_beneficiary",
                    "type": "address",
                    "internalType": "address"
                }
            ],
            "outputs": [],
            "stateMutability": "nonpayable"
        },
        {
            "type": "function",
            "name": "withdrawToken",
            "inputs": [
                {
                    "name": "_beneficiary",
                    "type": "address",
                    "internalType": "address"
                },
                {
                    "name": "_token",
                    "type": "address",
                    "internalType": "address"
                }
            ],
            "outputs": [],
            "stateMutability": "nonpayable"
        },
        {
            "type": "function",
            "name": "withdraw_initiator",
            "inputs": [
                {
                    "name": "_proof",
                    "type": "bytes",
                    "internalType": "bytes"
                },
                {
                    "name": "_nullifierHash",
                    "type": "bytes32",
                    "internalType": "bytes32"
                },
                {
                    "name": "_root",
                    "type": "bytes32",
                    "internalType": "bytes32"
                },
                {
                    "name": "_hashlock_nonce",
                    "type": "bytes32",
                    "internalType": "bytes32"
                },
                {
                    "name": "_order_id_hash",
                    "type": "bytes32",
                    "internalType": "bytes32"
                },
                {
                    "name": "_recipient",
                    "type": "address",
                    "internalType": "address"
                }
            ],
            "outputs": [],
            "stateMutability": "nonpayable"
        },
        {
            "type": "function",
            "name": "withdraw_responder",
            "inputs": [
                {
                    "name": "_proof",
                    "type": "bytes",
                    "internalType": "bytes"
                },
                {
                    "name": "_nullifierHash",
                    "type": "bytes32",
                    "internalType": "bytes32"
                },
                {
                    "name": "_root",
                    "type": "bytes32",
                    "internalType": "bytes32"
                },
                {
                    "name": "_recipient",
                    "type": "address",
                    "internalType": "address"
                }
            ],
            "outputs": [],
            "stateMutability": "nonpayable"
        },
        {
            "type": "function",
            "name": "zeros",
            "inputs": [
                {
                    "name": "i",
                    "type": "uint256",
                    "internalType": "uint256"
                }
            ],
            "outputs": [
                {
                    "name": "",
                    "type": "bytes32",
                    "internalType": "bytes32"
                }
            ],
            "stateMutability": "pure"
        },
        {
            "type": "function",
            "name": "ztomic_ccip_router",
            "inputs": [],
            "outputs": [
                {
                    "name": "",
                    "type": "address",
                    "internalType": "contract IProgrammableTokenTransfers"
                }
            ],
            "stateMutability": "view"
        },
        {
            "type": "event",
            "name": "MessageReceived",
            "inputs": [
                {
                    "name": "messageId",
                    "type": "bytes32",
                    "indexed": true,
                    "internalType": "bytes32"
                },
                {
                    "name": "sourceChainSelector",
                    "type": "uint64",
                    "indexed": true,
                    "internalType": "uint64"
                },
                {
                    "name": "sender",
                    "type": "address",
                    "indexed": false,
                    "internalType": "address"
                },
                {
                    "name": "data",
                    "type": "bytes32",
                    "indexed": false,
                    "internalType": "bytes32"
                },
                {
                    "name": "token",
                    "type": "address",
                    "indexed": false,
                    "internalType": "address"
                },
                {
                    "name": "tokenAmount",
                    "type": "uint256",
                    "indexed": false,
                    "internalType": "uint256"
                }
            ],
            "anonymous": false
        },
        {
            "type": "event",
            "name": "MessageSent",
            "inputs": [
                {
                    "name": "messageId",
                    "type": "bytes32",
                    "indexed": true,
                    "internalType": "bytes32"
                },
                {
                    "name": "destinationChainSelector",
                    "type": "uint64",
                    "indexed": true,
                    "internalType": "uint64"
                },
                {
                    "name": "receiver",
                    "type": "address",
                    "indexed": false,
                    "internalType": "address"
                },
                {
                    "name": "data",
                    "type": "bytes32",
                    "indexed": false,
                    "internalType": "bytes32"
                },
                {
                    "name": "token",
                    "type": "address",
                    "indexed": false,
                    "internalType": "address"
                },
                {
                    "name": "tokenAmount",
                    "type": "uint256",
                    "indexed": false,
                    "internalType": "uint256"
                },
                {
                    "name": "feeToken",
                    "type": "address",
                    "indexed": false,
                    "internalType": "address"
                },
                {
                    "name": "fees",
                    "type": "uint256",
                    "indexed": false,
                    "internalType": "uint256"
                }
            ],
            "anonymous": false
        },
        {
            "type": "event",
            "name": "OwnershipTransferRequested",
            "inputs": [
                {
                    "name": "from",
                    "type": "address",
                    "indexed": true,
                    "internalType": "address"
                },
                {
                    "name": "to",
                    "type": "address",
                    "indexed": true,
                    "internalType": "address"
                }
            ],
            "anonymous": false
        },
        {
            "type": "event",
            "name": "OwnershipTransferred",
            "inputs": [
                {
                    "name": "from",
                    "type": "address",
                    "indexed": true,
                    "internalType": "address"
                },
                {
                    "name": "to",
                    "type": "address",
                    "indexed": true,
                    "internalType": "address"
                }
            ],
            "anonymous": false
        },
        {
            "type": "event",
            "name": "deposited",
            "inputs": [
                {
                    "name": "_commitment",
                    "type": "bytes32",
                    "indexed": true,
                    "internalType": "bytes32"
                },
                {
                    "name": "leafIndex",
                    "type": "uint32",
                    "indexed": false,
                    "internalType": "uint32"
                },
                {
                    "name": "_order_id_hash",
                    "type": "bytes32",
                    "indexed": true,
                    "internalType": "bytes32"
                },
                {
                    "name": "hashlock",
                    "type": "bytes32",
                    "indexed": false,
                    "internalType": "bytes32"
                },
                {
                    "name": "ccipMessageId",
                    "type": "bytes32",
                    "indexed": false,
                    "internalType": "bytes32"
                }
            ],
            "anonymous": false
        },
        {
            "type": "event",
            "name": "withdrawal_initiator",
            "inputs": [
                {
                    "name": "_order_id_hash",
                    "type": "bytes32",
                    "indexed": true,
                    "internalType": "bytes32"
                },
                {
                    "name": "_hashlock_nonce",
                    "type": "bytes32",
                    "indexed": false,
                    "internalType": "bytes32"
                }
            ],
            "anonymous": false
        },
        {
            "type": "event",
            "name": "withdrawal_responder",
            "inputs": [
                {
                    "name": "commitment",
                    "type": "address",
                    "indexed": false,
                    "internalType": "address"
                }
            ],
            "anonymous": false
        },
        {
            "type": "error",
            "name": "DestinationChainNotAllowed",
            "inputs": [
                {
                    "name": "destinationChainSelector",
                    "type": "uint64",
                    "internalType": "uint64"
                }
            ]
        },
        {
            "type": "error",
            "name": "FailedToWithdrawEth",
            "inputs": [
                {
                    "name": "owner",
                    "type": "address",
                    "internalType": "address"
                },
                {
                    "name": "target",
                    "type": "address",
                    "internalType": "address"
                },
                {
                    "name": "value",
                    "type": "uint256",
                    "internalType": "uint256"
                }
            ]
        },
        {
            "type": "error",
            "name": "IncrementalMerkleTree__IndexOutOfBounds",
            "inputs": [
                {
                    "name": "index",
                    "type": "uint256",
                    "internalType": "uint256"
                }
            ]
        },
        {
            "type": "error",
            "name": "IncrementalMerkleTree__LeftValueOutOfRange",
            "inputs": [
                {
                    "name": "left",
                    "type": "bytes32",
                    "internalType": "bytes32"
                }
            ]
        },
        {
            "type": "error",
            "name": "IncrementalMerkleTree__LevelsShouldBeGreaterThanZero",
            "inputs": [
                {
                    "name": "depth",
                    "type": "uint32",
                    "internalType": "uint32"
                }
            ]
        },
        {
            "type": "error",
            "name": "IncrementalMerkleTree__LevelsShouldBeLessThan32",
            "inputs": [
                {
                    "name": "depth",
                    "type": "uint32",
                    "internalType": "uint32"
                }
            ]
        },
        {
            "type": "error",
            "name": "IncrementalMerkleTree__MerkleTreeFull",
            "inputs": [
                {
                    "name": "nextIndex",
                    "type": "uint32",
                    "internalType": "uint32"
                }
            ]
        },
        {
            "type": "error",
            "name": "IncrementalMerkleTree__RightValueOutOfRange",
            "inputs": [
                {
                    "name": "right",
                    "type": "bytes32",
                    "internalType": "bytes32"
                }
            ]
        },
        {
            "type": "error",
            "name": "InvalidReceiverAddress",
            "inputs": []
        },
        {
            "type": "error",
            "name": "InvalidRouter",
            "inputs": [
                {
                    "name": "router",
                    "type": "address",
                    "internalType": "address"
                }
            ]
        },
        {
            "type": "error",
            "name": "NotEnoughBalance",
            "inputs": [
                {
                    "name": "currentBalance",
                    "type": "uint256",
                    "internalType": "uint256"
                },
                {
                    "name": "requiredBalance",
                    "type": "uint256",
                    "internalType": "uint256"
                }
            ]
        },
        {
            "type": "error",
            "name": "NothingToWithdraw",
            "inputs": []
        },
        {
            "type": "error",
            "name": "SafeERC20FailedOperation",
            "inputs": [
                {
                    "name": "token",
                    "type": "address",
                    "internalType": "address"
                }
            ]
        },
        {
            "type": "error",
            "name": "SenderNotAllowed",
            "inputs": [
                {
                    "name": "sender",
                    "type": "address",
                    "internalType": "address"
                }
            ]
        },
        {
            "type": "error",
            "name": "SourceChainNotAllowed",
            "inputs": [
                {
                    "name": "sourceChainSelector",
                    "type": "uint64",
                    "internalType": "uint64"
                }
            ]
        },
        {
            "type": "error",
            "name": "Ztomic_CommitmentAlreadyExists",
            "inputs": []
        },
        {
            "type": "error",
            "name": "Ztomic__InvalidWithdrawProof",
            "inputs": []
        },
        {
            "type": "error",
            "name": "Ztomic__NoteAlreadySpent",
            "inputs": [
                {
                    "name": "nullifierHash",
                    "type": "bytes32",
                    "internalType": "bytes32"
                }
            ]
        },
        {
            "type": "error",
            "name": "Ztomic__UnknownRoot",
            "inputs": [
                {
                    "name": "root",
                    "type": "bytes32",
                    "internalType": "bytes32"
                }
            ]
        }
    ],
    "bytecode": {
        "object": "0x60e0604052600280546001600160401b0319908116909155600b8054600160a01b600160e01b031916600f60a11b179055600c8054909116620f4240179055348015610049575f5ffd5b50604051613db6380380613db68339810160408190526100689161096f565b848433805f848e8e8163ffffffff165f036100a3576040516356b2109160e11b815263ffffffff831660048201526024015b60405180910390fd5b60208263ffffffff16106100d2576040516379671ced60e01b815263ffffffff8316600482015260240161009a565b63ffffffff821660a08190526001600160a01b0382166080526100f490610296565b5f805260016020527fa6eef7e35abe7026729641147f7915573c7e97b47efa546f5f6e3230263bcb495550506001600160a01b038116610149576040516335fdcccd60e21b81525f600482015260240161009a565b6001600160a01b0390811660c05282166101a55760405162461bcd60e51b815260206004820152601860248201527f43616e6e6f7420736574206f776e657220746f207a65726f0000000000000000604482015260640161009a565b600280546001600160a01b038085166801000000000000000002600160401b600160e01b0319909216919091179091558116156101e5576101e581610897565b5050600b80546001600160a01b039384166001600160a01b031991821617909155600c80549b84166801000000000000000002600160401b600160e01b0319909c169b909b17909a5550600d8054988216988a169890981790975550600e805495871695881695909517909455601180546001600160401b0319166001600160401b0390931692909217909155600f805486169185169190911790555060108054909316911617905550610a389050565b5f815f036102c557507f0d823319708ab99ec915efd4f7e03d11ca1790918e8f04cd14100aceca2aa9ff919050565b816001036102f457507f170a9598425eb05eb8dc06986c6afc717811e874326a79576c02d338bdf14f13919050565b8160020361032357507f273b1a40397b618dac2fc66ceb71399a3e1a60341e546e053cbfa5995e824caf919050565b8160030361035257507f16bf9b1fb2dfa9d88cfb1752d6937a1594d257c2053dff3cb971016bfcffe2a1919050565b8160040361038157507f1288271e1f93a29fa6e748b7468a77a9b8fc3db6b216ce5fc2601fc3e9bd6b36919050565b816005036103b057507f1d47548adec1068354d163be4ffa348ca89f079b039c9191378584abd79edeca919050565b816006036103df57507f0b98a89e6827ef697b8fb2e280a2342d61db1eb5efc229f5f4a77fb333b80bef919050565b8160070361040e57507f231555e37e6b206f43fdcd4d660c47442d76aab1ef552aef6db45f3f9cf2e955919050565b8160080361043d57507f03d0dc8c92e2844abcc5fdefe8cb67d93034de0862943990b09c6b8e3fa27a86919050565b8160090361046c57507f1d51ac275f47f10e592b8e690fd3b28a76106893ac3e60cd7b2a3a443f4e8355919050565b81600a0361049b57507f16b671eb844a8e4e463e820e26560357edee4ecfdbf5d7b0a28799911505088d919050565b81600b036104ca57507f115ea0c2f132c5914d5bb737af6eed04115a3896f0d65e12e761ca560083da15919050565b81600c036104f957507f139a5b42099806c76efb52da0ec1dde06a836bf6f87ef7ab4bac7d00637e28f0919050565b81600d0361052857507f0804853482335a6533eb6a4ddfc215a08026db413d247a7695e807e38debea8e919050565b81600e0361055757507f2f0b264ab5f5630b591af93d93ec2dfed28eef017b251e40905cdf7983689803919050565b81600f0361058657507f170fc161bf1b9610bf196c173bdae82c4adfd93888dc317f5010822a3ba9ebee919050565b816010036105b557507f0b2e7665b17622cc0243b6fa35110aa7dd0ee3cc9409650172aa786ca5971439919050565b816011036105e457507f12d5a033cbeff854c5ba0c5628ac4628104be6ab370699a1b2b4209e518b0ac5919050565b8160120361061357507f1bc59846eb7eafafc85ba9a99a89562763735322e4255b7c1788a8fe8b90bf5d919050565b8160130361064257507f1b9421fbd79f6972a348a3dd4721781ec25a5d8d27342942ae00aba80a3904d4919050565b8160140361067157507f087fde1c4c9c27c347f347083139eee8759179d255ec8381c02298d3d6ccd233919050565b816015036106a057507f1e26b1884cb500b5e6bbfdeedbdca34b961caf3fa9839ea794bfc7f87d10b3f1919050565b816016036106cf57507f09fc1a538b88bda55a53253c62c153e67e8289729afd9b8bfd3f46f5eecd5a72919050565b816017036106fe57507f14cd0edec3423652211db5210475a230ca4771cd1e45315bcd6ea640f14077e2919050565b8160180361072d57507f1d776a76bc76f4305ef0b0b27a58a9565864fe1b9f2a198e8247b3e599e036ca919050565b8160190361075c57507f1f93e3103fed2d3bd056c3ac49b4a0728578be33595959788fa25514cdb5d42f919050565b81601a0361078b57507f138b0576ee7346fb3f6cfb632f92ae206395824b9333a183c15470404c977a3b919050565b81601b036107ba57507f0745de8522abfcd24bd50875865592f73a190070b4cb3d8976e3dbff8fdb7f3d919050565b81601c036107e957507f2ffb8c798b9dd2645e9187858cb92a86c86dcd1138f5d610c33df2696f5f6860919050565b81601d0361081857507f2612a1395168260c9999287df0e3c3f1b0d8e008e90cd15941e4c2df08a68a5a919050565b81601e0361084757507f10ebedce66a910039c8edb2cd832d6a9857648ccff5e99b5d08009b44b088edf919050565b81601f0361087657507f213fb841f9de06958cf4403477bdbff7c59d6249daabfee147f853db7c808082919050565b604051630edbc04760e31b81526004810183905260240161009a565b919050565b336001600160a01b038216036108ef5760405162461bcd60e51b815260206004820152601760248201527f43616e6e6f74207472616e7366657220746f2073656c66000000000000000000604482015260640161009a565b600380546001600160a01b0319166001600160a01b0383811691821790925560025460405191926801000000000000000090910416907fed8889f560326eb138920d842192f0eb3dd22b4f139c87a2c57538e05bae1278905f90a350565b6001600160a01b0381168114610961575f5ffd5b50565b80516108928161094d565b5f5f5f5f5f5f5f5f5f6101208a8c031215610988575f5ffd5b895163ffffffff8116811461099b575f5ffd5b60208b01519099506109ac8161094d565b60408b01519098506109bd8161094d565b60608b01519097506109ce8161094d565b60808b01519096506109df8161094d565b60a08b01519095506109f08161094d565b60c08b01519094506001600160401b0381168114610a0c575f5ffd5b9250610a1a60e08b01610964565b9150610a296101008b01610964565b90509295985092959850929598565b60805160a05160c051613338610a7e5f395f81816107c901526111e501525f818161060001528181611e040152611e6401525f81816105b50152610a8901526133385ff3fe608060405260043610610283575f3560e01c806380234f7311610155578063ca21fc7a116100be578063ed7cf2df11610078578063ed7cf2df146108e1578063ed7daeb81461090c578063eec378c41461092b578063f2fde38b1461094a578063f75cd26a14610969578063f84338be14610997575f5ffd5b8063ca21fc7a14610832578063cd87a3b414610851578063db04fa4914610865578063e829558814610884578063eab5b02c146108a3578063eae9335d146108c2575f5ffd5b8063946d55911161010f578063946d55911461074657806396d3b83d146107715780639c8b91c114610790578063b0f479a1146107bb578063b9ec20dc146107ed578063c902dcfe1461080c575f5ffd5b806380234f731461066457806380de63851461068357806385572ffb146106a2578063871211df146106c15780638da5cb5b146106f4578063942d898f14610718575f5ffd5b80635445b007116101f757806365946e04116101b157806365946e04146105665780636d9833e314610585578063705f032f146105a457806373d73202146105ef57806375c67c661461062257806379ba509714610650575f5ffd5b80635445b0071461048357806357f65706146104ab57806359f41a81146104c75780636159ada1146104eb57806364bc5e661461051957806365174af814610538575f5ffd5b806338bf282e1161024857806338bf282e146103a55780633aeac4e1146103d25780634030d521146103f3578063414a37ba146104215780634c64072a1461044157806351cff8d914610464575f5ffd5b806301ffc9a71461028e5780630d90f6a3146102c257806317e23788146102fa578063263596a51461033157806337341eda14610377575f5ffd5b3661028a57005b5f5ffd5b348015610299575f5ffd5b506102ad6102a8366004612987565b6109b6565b60405190151581526020015b60405180910390f35b3480156102cd575f5ffd5b50600b546102e590600160c01b900463ffffffff1681565b60405163ffffffff90911681526020016102b9565b348015610305575f5ffd5b506103196103143660046129ae565b6109ec565b6040516001600160401b0390911681526020016102b9565b34801561033c575f5ffd5b506004546007546005546006546040805194855260208501939093526001600160a01b039091169183019190915260608201526080016102b9565b348015610382575f5ffd5b506102ad6103913660046129ae565b60176020525f908152604090205460ff1681565b3480156103b0575f5ffd5b506103c46103bf3660046129c5565b610a1e565b6040519081526020016102b9565b3480156103dd575f5ffd5b506103f16103ec3660046129f9565b610b35565b005b3480156103fe575f5ffd5b506102ad61040d366004612a46565b60096020525f908152604090205460ff1681565b34801561042c575f5ffd5b506103c45f5160206132e35f395f51905f5281565b34801561044c575f5ffd5b50600b546102e590600160a01b900463ffffffff1681565b34801561046f575f5ffd5b506103f161047e366004612a5f565b610be0565b34801561048e575f5ffd5b5060025463ffffffff165f908152600160205260409020546103c4565b3480156104b6575f5ffd5b506002546102e59063ffffffff1681565b3480156104d2575f5ffd5b506002546102e590640100000000900463ffffffff1681565b3480156104f6575f5ffd5b506102ad610505366004612a5f565b600a6020525f908152604090205460ff1681565b348015610524575f5ffd5b506103f1610533366004612abe565b610c92565b348015610543575f5ffd5b506102ad6105523660046129ae565b60136020525f908152604090205460ff1681565b348015610571575f5ffd5b50600c54610319906001600160401b031681565b348015610590575f5ffd5b506102ad61059f3660046129ae565b610ee9565b3480156105af575f5ffd5b506105d77f000000000000000000000000000000000000000000000000000000000000000081565b6040516001600160a01b0390911681526020016102b9565b3480156105fa575f5ffd5b506102e57f000000000000000000000000000000000000000000000000000000000000000081565b34801561062d575f5ffd5b506102ad61063c366004612a46565b60086020525f908152604090205460ff1681565b34801561065b575f5ffd5b506103f1610f60565b34801561066f575f5ffd5b506103f161067e366004612b30565b611025565b34801561068e575f5ffd5b50600d546105d7906001600160a01b031681565b3480156106ad575f5ffd5b506103f16106bc366004612b74565b6111da565b3480156106cc575f5ffd5b506103c47f0d823319708ab99ec915efd4f7e03d11ca1790918e8f04cd14100aceca2aa9ff81565b3480156106ff575f5ffd5b50600254600160401b90046001600160a01b03166105d7565b348015610723575f5ffd5b506102ad6107323660046129ae565b60156020525f908152604090205460ff1681565b348015610751575f5ffd5b506103c4610760366004612baa565b60166020525f908152604090205481565b34801561077c575f5ffd5b506103f161078b366004612bcd565b611239565b34801561079b575f5ffd5b506103c46107aa3660046129ae565b60016020525f908152604090205481565b3480156107c6575f5ffd5b507f00000000000000000000000000000000000000000000000000000000000000006105d7565b3480156107f8575f5ffd5b506103f1610807366004612bf7565b61126b565b348015610817575f5ffd5b50600c546105d790600160401b90046001600160a01b031681565b34801561083d575f5ffd5b50600e546105d7906001600160a01b031681565b34801561085c575f5ffd5b506102e5601e81565b348015610870575f5ffd5b506103f161087f366004612bcd565b6114df565b34801561088f575f5ffd5b506103c461089e3660046129ae565b611511565b3480156108ae575f5ffd5b506103f16108bd366004612c6e565b611b12565b3480156108cd575f5ffd5b506102ad6108dc3660046129ae565b611b44565b3480156108ec575f5ffd5b506103c46108fb3660046129ae565b5f6020819052908152604090205481565b348015610917575f5ffd5b506103f1610926366004612c8a565b611bcd565b348015610936575f5ffd5b506010546105d7906001600160a01b031681565b348015610955575f5ffd5b506103f1610964366004612a5f565b611d3c565b348015610974575f5ffd5b506102ad6109833660046129ae565b60146020525f908152604090205460ff1681565b3480156109a2575f5ffd5b50600f546105d7906001600160a01b031681565b5f6001600160e01b031982166385572ffb60e01b14806109e657506001600160e01b031982166301ffc9a760e01b145b92915050565b601181600581106109fb575f80fd5b60049182820401919006600802915054906101000a90046001600160401b031681565b5f5f5160206132e35f395f51905f528310610a545760405163431b5c3560e11b8152600481018490526024015b60405180910390fd5b5f5160206132e35f395f51905f528210610a84576040516351da4a5b60e01b815260048101839052602401610a4b565b610b2e7f00000000000000000000000000000000000000000000000000000000000000006001600160a01b031663055d8d54610abf86611d4d565b610ac886611d4d565b6040516001600160e01b031960e085901b16815260048101929092526024820152604401602060405180830381865afa158015610b07573d5f5f3e3d5ffd5b505050506040513d601f19601f82011682018060405250810190610b2b9190612cc9565b90565b9392505050565b610b3d611d57565b6040516370a0823160e01b81523060048201525f906001600160a01b038316906370a0823190602401602060405180830381865afa158015610b81573d5f5f3e3d5ffd5b505050506040513d601f19601f82011682018060405250810190610ba59190612cc9565b9050805f03610bc757604051630686827b60e51b815260040160405180910390fd5b610bdb6001600160a01b0383168483611db3565b505050565b610be8611d57565b475f819003610c0a57604051630686827b60e51b815260040160405180910390fd5b5f826001600160a01b0316826040515f6040518083038185875af1925050503d805f8114610c53576040519150601f19603f3d011682016040523d82523d5f602084013e610c58565b606091505b5050905080610bdb57604051639d11f56360e01b81523360048201526001600160a01b038416602482015260448101839052606401610a4b565b5f8381526013602052604090205460ff1680610cbb57505f8381526017602052604090205460ff165b15610cdc576040516336906fd160e11b815260048101849052602401610a4b565b610ce582610ee9565b158015610cf85750610cf682611b44565b155b15610d195760405163d368facf60e01b815260048101839052602401610a4b565b6040805160028082526060820183525f9260208301908036833701905050905083815f81518110610d4c57610d4c612cf4565b6020026020010181815250508281600181518110610d6c57610d6c612cf4565b6020908102919091010152601054604051633a94343960e21b81526001600160a01b039091169063ea50d0e490610dab90899089908690600401612d08565b602060405180830381865afa158015610dc6573d5f5f3e3d5ffd5b505050506040513d601f19601f82011682018060405250810190610dea9190612d80565b610e075760405163245e8e8d60e11b815260040160405180910390fd5b5f8481526013602052604090819020805460ff19166001179055600c54905163a9059cbb60e01b81526001600160a01b0384811660048301526001600160401b0383166024830152600160401b9092049091169063a9059cbb906044016020604051808303815f875af1158015610e80573d5f5f3e3d5ffd5b505050506040513d601f19601f82011682018060405250810190610ea49190612d80565b506040516001600160a01b03831681527f013bd6ada6967d79886d3c1a23198be484032e4ad175657dfecf46db30b55a779060200160405180910390a1505050505050565b5f81610ef657505f919050565b60025463ffffffff16805b63ffffffff81165f908152600160205260409020548403610f26575060019392505050565b8063ffffffff165f03610f375750601e5b80610f4181612daf565b9150508163ffffffff168163ffffffff1603610f0157505f9392505050565b6003546001600160a01b03163314610fb35760405162461bcd60e51b815260206004820152601660248201527526bab9ba10313290383937b837b9b2b21037bbb732b960511b6044820152606401610a4b565b6002805468010000000000000000600160e01b03198116600160401b3381810292909217909355600380546001600160a01b0319169055604051929091046001600160a01b03169182907f8be0079c531659141344cd1fd0a4f28419497f9722a3daafe3b4186f6b6457e0905f90a350565b5f8581526014602052604090205460ff16156110545760405163bd3d733560e01b815260040160405180910390fd5b600c546040516323b872dd60e01b81523360048201523060248201526001600160401b0382166044820181905291600160401b90046001600160a01b03169081906323b872dd906064016020604051808303815f875af11580156110ba573d5f5f3e3d5ffd5b505050506040513d601f19601f820116820180604052508101906110de9190612d80565b505f878152601460205260408120805460ff1916600117905561110088611de8565b9050841561119a575f61115d6011825b600491828204019190066008029054906101000a90046001600160401b03168661114d60025463ffffffff165f9081526001602052604090205490565b86886001600160401b0316611f9c565b6040805163ffffffff85168152602081018a905290810182905290915088908a905f5160206132c35f395f51905f529060600160405180910390a3505b6040805163ffffffff83168152602081018890525f81830152905188918a915f5160206132c35f395f51905f529181900360600190a35050505050505050565b336001600160a01b037f00000000000000000000000000000000000000000000000000000000000000001614611225576040516335fdcccd60e21b8152336004820152602401610a4b565b61123661123182612f5f565b612450565b50565b611241611d57565b6001600160401b03919091165f908152600860205260409020805460ff1916911515919091179055565b5f8581526013602052604090205460ff168061129457505f8581526017602052604090205460ff165b156112b5576040516336906fd160e11b815260048101869052602401610a4b565b6112be84610ee9565b1580156112d157506112cf84611b44565b155b156112f25760405163d368facf60e01b815260048101859052602401610a4b565b604080516003808252608082019092525f916020820160608036833701905050905083815f8151811061132757611327612cf4565b602002602001018181525050858160018151811061134757611347612cf4565b602002602001018181525050848160028151811061136757611367612cf4565b6020908102919091010152600f54604051633a94343960e21b81526001600160a01b039091169063ea50d0e4906113a6908b908b908690600401612d08565b602060405180830381865afa1580156113c1573d5f5f3e3d5ffd5b505050506040513d601f19601f820116820180604052508101906113e59190612d80565b6114025760405163245e8e8d60e11b815260040160405180910390fd5b5f8681526013602052604090819020805460ff19166001179055600d54600c54915163a9059cbb60e01b81526001600160a01b0385811660048301526001600160401b03909316602482015291169063a9059cbb906044016020604051808303815f875af1158015611476573d5f5f3e3d5ffd5b505050506040513d601f19601f8201168201806040525081019061149a9190612d80565b50827f9fbbeb11626fd35c434c26f289eb90058663b53e8d69a058c2ea81458b6adc0c856040516114cd91815260200190565b60405180910390a25050505050505050565b6114e7611d57565b6001600160401b03919091165f908152600960205260409020805460ff1916911515919091179055565b5f815f0361154057507f0d823319708ab99ec915efd4f7e03d11ca1790918e8f04cd14100aceca2aa9ff919050565b8160010361156f57507f170a9598425eb05eb8dc06986c6afc717811e874326a79576c02d338bdf14f13919050565b8160020361159e57507f273b1a40397b618dac2fc66ceb71399a3e1a60341e546e053cbfa5995e824caf919050565b816003036115cd57507f16bf9b1fb2dfa9d88cfb1752d6937a1594d257c2053dff3cb971016bfcffe2a1919050565b816004036115fc57507f1288271e1f93a29fa6e748b7468a77a9b8fc3db6b216ce5fc2601fc3e9bd6b36919050565b8160050361162b57507f1d47548adec1068354d163be4ffa348ca89f079b039c9191378584abd79edeca919050565b8160060361165a57507f0b98a89e6827ef697b8fb2e280a2342d61db1eb5efc229f5f4a77fb333b80bef919050565b8160070361168957507f231555e37e6b206f43fdcd4d660c47442d76aab1ef552aef6db45f3f9cf2e955919050565b816008036116b857507f03d0dc8c92e2844abcc5fdefe8cb67d93034de0862943990b09c6b8e3fa27a86919050565b816009036116e757507f1d51ac275f47f10e592b8e690fd3b28a76106893ac3e60cd7b2a3a443f4e8355919050565b81600a0361171657507f16b671eb844a8e4e463e820e26560357edee4ecfdbf5d7b0a28799911505088d919050565b81600b0361174557507f115ea0c2f132c5914d5bb737af6eed04115a3896f0d65e12e761ca560083da15919050565b81600c0361177457507f139a5b42099806c76efb52da0ec1dde06a836bf6f87ef7ab4bac7d00637e28f0919050565b81600d036117a357507f0804853482335a6533eb6a4ddfc215a08026db413d247a7695e807e38debea8e919050565b81600e036117d257507f2f0b264ab5f5630b591af93d93ec2dfed28eef017b251e40905cdf7983689803919050565b81600f0361180157507f170fc161bf1b9610bf196c173bdae82c4adfd93888dc317f5010822a3ba9ebee919050565b8160100361183057507f0b2e7665b17622cc0243b6fa35110aa7dd0ee3cc9409650172aa786ca5971439919050565b8160110361185f57507f12d5a033cbeff854c5ba0c5628ac4628104be6ab370699a1b2b4209e518b0ac5919050565b8160120361188e57507f1bc59846eb7eafafc85ba9a99a89562763735322e4255b7c1788a8fe8b90bf5d919050565b816013036118bd57507f1b9421fbd79f6972a348a3dd4721781ec25a5d8d27342942ae00aba80a3904d4919050565b816014036118ec57507f087fde1c4c9c27c347f347083139eee8759179d255ec8381c02298d3d6ccd233919050565b8160150361191b57507f1e26b1884cb500b5e6bbfdeedbdca34b961caf3fa9839ea794bfc7f87d10b3f1919050565b8160160361194a57507f09fc1a538b88bda55a53253c62c153e67e8289729afd9b8bfd3f46f5eecd5a72919050565b8160170361197957507f14cd0edec3423652211db5210475a230ca4771cd1e45315bcd6ea640f14077e2919050565b816018036119a857507f1d776a76bc76f4305ef0b0b27a58a9565864fe1b9f2a198e8247b3e599e036ca919050565b816019036119d757507f1f93e3103fed2d3bd056c3ac49b4a0728578be33595959788fa25514cdb5d42f919050565b81601a03611a0657507f138b0576ee7346fb3f6cfb632f92ae206395824b9333a183c15470404c977a3b919050565b81601b03611a3557507f0745de8522abfcd24bd50875865592f73a190070b4cb3d8976e3dbff8fdb7f3d919050565b81601c03611a6457507f2ffb8c798b9dd2645e9187858cb92a86c86dcd1138f5d610c33df2696f5f6860919050565b81601d03611a9357507f2612a1395168260c9999287df0e3c3f1b0d8e008e90cd15941e4c2df08a68a5a919050565b81601e03611ac257507f10ebedce66a910039c8edb2cd832d6a9857648ccff5e99b5d08009b44b088edf919050565b81601f03611af157507f213fb841f9de06958cf4403477bdbff7c59d6249daabfee147f853db7c808082919050565b604051630edbc04760e31b815260048101839052602401610a4b565b919050565b611b1a611d57565b6001600160a01b03919091165f908152600a60205260409020805460ff1916911515919091179055565b5f81611b5157505f919050565b600b5463ffffffff600160c01b8204811691600160a01b900416815b63ffffffff81165f908152601660205260409020548503611b9357506001949350505050565b8063ffffffff165f03611ba35750805b80611bad81612daf565b9150508263ffffffff168163ffffffff1603611b6d57505f949350505050565b5f8381526015602052604090205460ff1615611bfc5760405163bd3d733560e01b815260040160405180910390fd5b600c54600d546040516323b872dd60e01b81523360048201523060248201526001600160401b0390921660448301819052916001600160a01b039091169081906323b872dd906064016020604051808303815f875af1158015611c61573d5f5f3e3d5ffd5b505050506040513d601f19601f82011682018060405250810190611c859190612d80565b505f858152601560205260408120805460ff19166001179055611ca786611de8565b90508415611cfc575f611cbb601182611110565b6040805163ffffffff851681525f602082018190529181018390529192509088905f5160206132c35f395f51905f529060600160405180910390a350611d34565b6040805163ffffffff831681525f6020820181905291810182905287905f5160206132c35f395f51905f529060600160405180910390a35b505050505050565b611d44611d57565b61123681612481565b80611b0d81612532565b600254600160401b90046001600160a01b03163314611db15760405162461bcd60e51b815260206004820152601660248201527527b7363c9031b0b63630b1363290313c9037bbb732b960511b6044820152606401610a4b565b565b611dc0838383600161258e565b610bdb57604051635274afe760e01b81526001600160a01b0384166004820152602401610a4b565b600280545f9164010000000090910463ffffffff1690611e29907f000000000000000000000000000000000000000000000000000000000000000090613122565b63ffffffff168163ffffffff1603611e5c57604051630d077d7f60e21b815263ffffffff82166004820152602401610a4b565b80835f80805b7f000000000000000000000000000000000000000000000000000000000000000063ffffffff168163ffffffff161015611f0c57611ea1600286613139565b63ffffffff165f03611edd57839250611ebf8163ffffffff16611511565b63ffffffff82165f9081526020819052604090208590559150611ef8565b63ffffffff81165f9081526020819052604090205492508391505b611f028383610a1e565b9350600101611e62565b506002545f90601e90611f269063ffffffff16600161316c565b611f309190613139565b6002805463ffffffff191663ffffffff83169081179091555f908152600160208190526040909120869055909150611f6990879061316c565b6002805463ffffffff929092166401000000000267ffffffff000000001990921691909117905550939695505050505050565b5f5f611fbf86868686600b5f9054906101000a90046001600160a01b03166125f0565b90505f306001600160a01b031663b0f479a16040518163ffffffff1660e01b8152600401602060405180830381865afa158015611ffe573d5f5f3e3d5ffd5b505050506040513d601f19601f820116820180604052508101906120229190613188565b90505f816001600160a01b03166320487ded8a856040518363ffffffff1660e01b81526004016120539291906131d1565b602060405180830381865afa15801561206e573d5f5f3e3d5ffd5b505050506040513d601f19601f820116820180604052508101906120929190612cc9565b600b5490915081906001600160a01b03908116908816036120ba576120b786826132af565b90505b600b546040516370a0823160e01b81523060048201526001600160a01b03909116906370a0823190602401602060405180830381865afa158015612100573d5f5f3e3d5ffd5b505050506040513d601f19601f820116820180604052508101906121249190612cc9565b8111156121b957600b546040516370a0823160e01b81523060048201526001600160a01b03909116906370a0823190602401602060405180830381865afa158015612171573d5f5f3e3d5ffd5b505050506040513d601f19601f820116820180604052508101906121959190612cc9565b604051634787a10360e11b8152600481019190915260248101829052604401610a4b565b600b5460405163095ea7b360e01b81526001600160a01b038581166004830152602482018490529091169063095ea7b3906044016020604051808303815f875af1158015612209573d5f5f3e3d5ffd5b505050506040513d601f19601f8201168201806040525081019061222d9190612d80565b50600b546001600160a01b0388811691161480159061225457506001600160a01b03871615155b15612361576040516370a0823160e01b81523060048201525f906001600160a01b038916906370a0823190602401602060405180830381865afa15801561229d573d5f5f3e3d5ffd5b505050506040513d601f19601f820116820180604052508101906122c19190612cc9565b9050808711156122ee57604051634787a10360e11b81526004810182905260248101889052604401610a4b565b60405163095ea7b360e01b81526001600160a01b0385811660048301526024820189905289169063095ea7b3906044016020604051808303815f875af115801561233a573d5f5f3e3d5ffd5b505050506040513d601f19601f8201168201806040525081019061235e9190612d80565b50505b6040516396f4e9f960e01b81526001600160a01b038416906396f4e9f99061238f908d9088906004016131d1565b6020604051808303815f875af11580156123ab573d5f5f3e3d5ffd5b505050506040513d601f19601f820116820180604052508101906123cf9190612cc9565b600b54604080516001600160a01b038d81168252602082018d90528b811682840152606082018b9052909216608083015260a08201859052519196506001600160401b038c169187917f7b4930aecf647d110f1704fe064cb211a501b4cc91b64d0175832ac115643303919081900360c00190a35050505095945050505050565b5f81606001518060200190518101906124699190612cc9565b9050612474816127e8565b61247d82612850565b5050565b336001600160a01b038216036124d95760405162461bcd60e51b815260206004820152601760248201527f43616e6e6f74207472616e7366657220746f2073656c660000000000000000006044820152606401610a4b565b600380546001600160a01b0319166001600160a01b038381169182179092556002546040519192600160401b90910416907fed8889f560326eb138920d842192f0eb3dd22b4f139c87a2c57538e05bae1278905f90a350565b5f5160206132e35f395f51905f5281106112365760405162461bcd60e51b815260206004820152601960248201527f4669656c643a20696e70757420697320746f6f206c61726765000000000000006044820152606401610a4b565b60405163a9059cbb60e01b5f8181526001600160a01b038616600452602485905291602083604481808b5af1925060015f511483166125e45783831516156125d8573d5f823e3d81fd5b5f873b113d1516831692505b60405250949350505050565b61262a6040518060a001604052806060815260200160608152602001606081526020015f6001600160a01b03168152602001606081525090565b60606001600160a01b0385161580159061264357505f84115b156126c55760408051600180825281830190925290816020015b604080518082019091525f808252602082015281526020019060019003908161265d5790505090506040518060400160405280866001600160a01b0316815260200185815250815f815181106126b5576126b5612cf4565b6020026020010181905250612704565b604080515f8082526020820190925290612700565b604080518082019091525f80825260208201528152602001906001900390816126da5790505b5090505b6040805160a081019091526001600160a01b03881660c08201528060e0810160405160208183030381529060405281526020018760405160200161274a91815260200190565b6040516020818303038152906040528152602001828152602001846001600160a01b031681526020016127db604051806040016040528062030d408152602001600115158152506040805182516024820152602092830151151560448083019190915282518083039091018152606490910190915290810180516001600160e01b0316630181dcf160e41b17905290565b9052979650505050505050565b600b5463ffffffff600160a01b820481169161280e91600160c01b90910416600161316c565b6128189190613139565b600b805463ffffffff60c01b1916600160c01b63ffffffff938416810291909117918290559004165f90815260166020526040902055565b80516004556060810151805161286e91602091810182019101612cc9565b600755600580546001600160a01b03191690555f600655608081015151156128ff5780608001515f815181106128a6576128a6612cf4565b60200260200101515f015160055f6101000a8154816001600160a01b0302191690836001600160a01b0316021790555080608001515f815181106128ec576128ec612cf4565b6020026020010151602001516006819055505b80602001516001600160401b0316815f01517f47db43efa9b1440e39104887f88e98a927f79d8dca5f9075a9607d0111a9154f836040015180602001905181019061294a9190613188565b600754600554600654604080516001600160a01b03958616815260208101949094529390911682840152606082015290519081900360800190a350565b5f60208284031215612997575f5ffd5b81356001600160e01b031981168114610b2e575f5ffd5b5f602082840312156129be575f5ffd5b5035919050565b5f5f604083850312156129d6575f5ffd5b50508035926020909101359150565b6001600160a01b0381168114611236575f5ffd5b5f5f60408385031215612a0a575f5ffd5b8235612a15816129e5565b91506020830135612a25816129e5565b809150509250929050565b80356001600160401b0381168114611b0d575f5ffd5b5f60208284031215612a56575f5ffd5b610b2e82612a30565b5f60208284031215612a6f575f5ffd5b8135610b2e816129e5565b5f5f83601f840112612a8a575f5ffd5b5081356001600160401b03811115612aa0575f5ffd5b602083019150836020828501011115612ab7575f5ffd5b9250929050565b5f5f5f5f5f60808688031215612ad2575f5ffd5b85356001600160401b03811115612ae7575f5ffd5b612af388828901612a7a565b90965094505060208601359250604086013591506060860135612b15816129e5565b809150509295509295909350565b8015158114611236575f5ffd5b5f5f5f5f5f60a08688031215612b44575f5ffd5b8535945060208601359350604086013592506060860135612b6481612b23565b91506080860135612b15816129e5565b5f60208284031215612b84575f5ffd5b81356001600160401b03811115612b99575f5ffd5b820160a08185031215610b2e575f5ffd5b5f60208284031215612bba575f5ffd5b813563ffffffff81168114610b2e575f5ffd5b5f5f60408385031215612bde575f5ffd5b612be783612a30565b91506020830135612a2581612b23565b5f5f5f5f5f5f5f60c0888a031215612c0d575f5ffd5b87356001600160401b03811115612c22575f5ffd5b612c2e8a828b01612a7a565b9098509650506020880135945060408801359350606088013592506080880135915060a0880135612c5e816129e5565b8091505092959891949750929550565b5f5f60408385031215612c7f575f5ffd5b8235612be7816129e5565b5f5f5f60608486031215612c9c575f5ffd5b833592506020840135612cae81612b23565b91506040840135612cbe816129e5565b809150509250925092565b5f60208284031215612cd9575f5ffd5b5051919050565b634e487b7160e01b5f52604160045260245ffd5b634e487b7160e01b5f52603260045260245ffd5b60408152826040820152828460608301375f606084830101525f601f19601f85011682016060810160608483030160208501528085518083526080840191506020870193505f92505b80831015612d745783518252602082019150602084019350600183019250612d51565b50979650505050505050565b5f60208284031215612d90575f5ffd5b8151610b2e81612b23565b634e487b7160e01b5f52601160045260245ffd5b5f63ffffffff821680612dc457612dc4612d9b565b5f190192915050565b604080519081016001600160401b0381118282101715612def57612def612ce0565b60405290565b60405160a081016001600160401b0381118282101715612def57612def612ce0565b604051601f8201601f191681016001600160401b0381118282101715612e3f57612e3f612ce0565b604052919050565b5f82601f830112612e56575f5ffd5b81356001600160401b03811115612e6f57612e6f612ce0565b612e82601f8201601f1916602001612e17565b818152846020838601011115612e96575f5ffd5b816020850160208301375f918101602001919091529392505050565b5f82601f830112612ec1575f5ffd5b81356001600160401b03811115612eda57612eda612ce0565b612ee960208260051b01612e17565b8082825260208201915060208360061b860101925085831115612f0a575f5ffd5b602085015b83811015612f555760408188031215612f26575f5ffd5b612f2e612dcd565b8135612f39816129e5565b8152602082810135818301529084529290920191604001612f0f565b5095945050505050565b5f60a08236031215612f6f575f5ffd5b612f77612df5565b82358152612f8760208401612a30565b602082015260408301356001600160401b03811115612fa4575f5ffd5b612fb036828601612e47565b60408301525060608301356001600160401b03811115612fce575f5ffd5b612fda36828601612e47565b60608301525060808301356001600160401b03811115612ff8575f5ffd5b61300436828601612eb2565b60808301525092915050565b6001815b600184111561304b5780850481111561302f5761302f612d9b565b600184161561303d57908102905b60019390931c928002613014565b935093915050565b5f82613061575060016109e6565b8161306d57505f6109e6565b8160018114613083576002811461308d576130be565b60019150506109e6565b60ff84111561309e5761309e612d9b565b6001841b915063ffffffff8211156130b8576130b8612d9b565b506109e6565b5060208310610133831016604e8410600b84101617156130f5575081810a63ffffffff8111156130f0576130f0612d9b565b6109e6565b61310463ffffffff8484613010565b8063ffffffff0482111561311a5761311a612d9b565b029392505050565b5f610b2e63ffffffff841663ffffffff8416613053565b5f63ffffffff83168061315a57634e487b7160e01b5f52601260045260245ffd5b8063ffffffff84160691505092915050565b63ffffffff81811683821601908111156109e6576109e6612d9b565b5f60208284031215613198575f5ffd5b8151610b2e816129e5565b5f81518084528060208401602086015e5f602082860101526020601f19601f83011685010191505092915050565b6001600160401b0383168152604060208201525f825160a060408401526131fb60e08401826131a3565b90506020840151603f1984830301606085015261321882826131a3565b6040860151858203603f190160808701528051808352602091820194505f93509101905b8083101561327357835180516001600160a01b0316835260209081015181840152909301926001929092019160409091019061323c565b5060608601516001600160a01b031660a08601526080860151858203603f190160c087015292506132a481846131a3565b979650505050505050565b808201808211156109e6576109e6612d9b56fe5b74afea25fa38dc1766775fbf88b24dcba64a578704e51b6445c4433080c7df30644e72e131a029b85045b68181585d2833e84879b9709143e1f593f0000001a26469706673582212200dd61eb8b615ea91cbcb75c2f2e77406d8195ac12606800de40fe81b8061a11164736f6c634300081e0033",
        "linkReferences": {}
    },
    "methodIdentifiers": {
        "FIELD_SIZE()": "414a37ba",
        "ROOT_HISTORY_SIZE()": "cd87a3b4",
        "SHARED_ROOT_HISTORY_SIZE()": "4c64072a",
        "SWAP_DENOMINATION()": "65946e04",
        "ZERO_ELEMENT()": "871211df",
        "acceptOwnership()": "79ba5097",
        "allowlistDestinationChain(uint64,bool)": "96d3b83d",
        "allowlistSender(address,bool)": "eab5b02c",
        "allowlistSourceChain(uint64,bool)": "db04fa49",
        "allowlistedDestinationChains(uint64)": "75c67c66",
        "allowlistedSenders(address)": "6159ada1",
        "allowlistedSourceChains(uint64)": "4030d521",
        "ccipReceive((bytes32,uint64,bytes,bytes,(address,uint256)[]))": "85572ffb",
        "deposit_initiator(bytes32,bytes32,bytes32,bool,address)": "80234f73",
        "deposit_responder(bytes32,bool,address)": "ed7daeb8",
        "destinationChainSelectors(uint256)": "17e23788",
        "getLastReceivedMessageDetails()": "263596a5",
        "getLatestRoot()": "5445b007",
        "getRouter()": "b0f479a1",
        "hashLeftRight(bytes32,bytes32)": "38bf282e",
        "i_depth()": "73d73202",
        "i_hasher()": "705f032f",
        "isKnownRoot(bytes32)": "6d9833e3",
        "isKnownSharedRoot(bytes32)": "eae9335d",
        "owner()": "8da5cb5b",
        "s_cachedSubtrees(uint256)": "ed7cf2df",
        "s_currentRootIndex()": "57f65706",
        "s_currentSharedRootIndex()": "0d90f6a3",
        "s_initiator_commitments(bytes32)": "f75cd26a",
        "s_nextLeafIndex()": "59f41a81",
        "s_nullifierHashes(bytes32)": "65174af8",
        "s_responder_commitments(bytes32)": "942d898f",
        "s_roots(uint256)": "9c8b91c1",
        "s_sharedNullifierHashes(bytes32)": "37341eda",
        "s_sharedRootsMapping(uint32)": "946d5591",
        "s_stableOne()": "c902dcfe",
        "s_stableTwo()": "80de6385",
        "supportsInterface(bytes4)": "01ffc9a7",
        "transferOwnership(address)": "f2fde38b",
        "verifierA()": "f84338be",
        "verifierB()": "eec378c4",
        "withdraw(address)": "51cff8d9",
        "withdrawToken(address,address)": "3aeac4e1",
        "withdraw_initiator(bytes,bytes32,bytes32,bytes32,bytes32,address)": "b9ec20dc",
        "withdraw_responder(bytes,bytes32,bytes32,address)": "64bc5e66",
        "zeros(uint256)": "e8295588",
        "ztomic_ccip_router()": "ca21fc7a"
    },
    "id": 44
}