{
    "_format": "hh3-artifact-1",
    "contractName": "ZtomicOptimized",
    "sourceName": "contracts/ZtomicOptimized.sol",
    "abi": [
        {
            "inputs": [
                {
                    "internalType": "uint32",
                    "name": "depth",
                    "type": "uint32"
                },
                {
                    "internalType": "contract Poseidon2",
                    "name": "hasher",
                    "type": "address"
                },
                {
                    "internalType": "address",
                    "name": "stableOneAddress",
                    "type": "address"
                },
                {
                    "internalType": "address",
                    "name": "stableTwoAddress",
                    "type": "address"
                },
                {
                    "internalType": "address",
                    "name": "_ztomic_ccip_router",
                    "type": "address"
                },
                {
                    "internalType": "address",
                    "name": "_linkTokenAddress",
                    "type": "address"
                },
                {
                    "internalType": "uint64",
                    "name": "_destinationChainSelector",
                    "type": "uint64"
                },
                {
                    "internalType": "address",
                    "name": "_verifierA",
                    "type": "address"
                },
                {
                    "internalType": "address",
                    "name": "_verifierB",
                    "type": "address"
                }
            ],
            "stateMutability": "nonpayable",
            "type": "constructor"
        },
        {
            "inputs": [
                {
                    "internalType": "uint64",
                    "name": "destinationChainSelector",
                    "type": "uint64"
                }
            ],
            "name": "DestinationChainNotAllowed",
            "type": "error"
        },
        {
            "inputs": [
                {
                    "internalType": "address",
                    "name": "owner",
                    "type": "address"
                },
                {
                    "internalType": "address",
                    "name": "target",
                    "type": "address"
                },
                {
                    "internalType": "uint256",
                    "name": "value",
                    "type": "uint256"
                }
            ],
            "name": "FailedToWithdrawEth",
            "type": "error"
        },
        {
            "inputs": [
                {
                    "internalType": "uint256",
                    "name": "index",
                    "type": "uint256"
                }
            ],
            "name": "IncrementalMerkleTree__IndexOutOfBounds",
            "type": "error"
        },
        {
            "inputs": [
                {
                    "internalType": "bytes32",
                    "name": "left",
                    "type": "bytes32"
                }
            ],
            "name": "IncrementalMerkleTree__LeftValueOutOfRange",
            "type": "error"
        },
        {
            "inputs": [
                {
                    "internalType": "uint32",
                    "name": "depth",
                    "type": "uint32"
                }
            ],
            "name": "IncrementalMerkleTree__LevelsShouldBeGreaterThanZero",
            "type": "error"
        },
        {
            "inputs": [
                {
                    "internalType": "uint32",
                    "name": "depth",
                    "type": "uint32"
                }
            ],
            "name": "IncrementalMerkleTree__LevelsShouldBeLessThan32",
            "type": "error"
        },
        {
            "inputs": [
                {
                    "internalType": "uint32",
                    "name": "nextIndex",
                    "type": "uint32"
                }
            ],
            "name": "IncrementalMerkleTree__MerkleTreeFull",
            "type": "error"
        },
        {
            "inputs": [
                {
                    "internalType": "bytes32",
                    "name": "right",
                    "type": "bytes32"
                }
            ],
            "name": "IncrementalMerkleTree__RightValueOutOfRange",
            "type": "error"
        },
        {
            "inputs": [],
            "name": "InvalidReceiverAddress",
            "type": "error"
        },
        {
            "inputs": [
                {
                    "internalType": "address",
                    "name": "router",
                    "type": "address"
                }
            ],
            "name": "InvalidRouter",
            "type": "error"
        },
        {
            "inputs": [
                {
                    "internalType": "uint256",
                    "name": "currentBalance",
                    "type": "uint256"
                },
                {
                    "internalType": "uint256",
                    "name": "requiredBalance",
                    "type": "uint256"
                }
            ],
            "name": "NotEnoughBalance",
            "type": "error"
        },
        {
            "inputs": [],
            "name": "NothingToWithdraw",
            "type": "error"
        },
        {
            "inputs": [
                {
                    "internalType": "address",
                    "name": "sender",
                    "type": "address"
                }
            ],
            "name": "SenderNotAllowed",
            "type": "error"
        },
        {
            "inputs": [
                {
                    "internalType": "uint64",
                    "name": "sourceChainSelector",
                    "type": "uint64"
                }
            ],
            "name": "SourceChainNotAllowed",
            "type": "error"
        },
        {
            "inputs": [],
            "name": "Ztomic_CommitmentAlreadyExists",
            "type": "error"
        },
        {
            "inputs": [],
            "name": "Ztomic__InvalidWithdrawProof",
            "type": "error"
        },
        {
            "inputs": [
                {
                    "internalType": "bytes32",
                    "name": "nullifierHash",
                    "type": "bytes32"
                }
            ],
            "name": "Ztomic__NoteAlreadySpent",
            "type": "error"
        },
        {
            "inputs": [
                {
                    "internalType": "bytes32",
                    "name": "root",
                    "type": "bytes32"
                }
            ],
            "name": "Ztomic__UnknownRoot",
            "type": "error"
        },
        {
            "anonymous": false,
            "inputs": [
                {
                    "indexed": true,
                    "internalType": "bytes32",
                    "name": "messageId",
                    "type": "bytes32"
                },
                {
                    "indexed": true,
                    "internalType": "uint64",
                    "name": "sourceChainSelector",
                    "type": "uint64"
                },
                {
                    "indexed": false,
                    "internalType": "address",
                    "name": "sender",
                    "type": "address"
                },
                {
                    "indexed": false,
                    "internalType": "bytes32",
                    "name": "data",
                    "type": "bytes32"
                },
                {
                    "indexed": false,
                    "internalType": "address",
                    "name": "token",
                    "type": "address"
                },
                {
                    "indexed": false,
                    "internalType": "uint256",
                    "name": "tokenAmount",
                    "type": "uint256"
                }
            ],
            "name": "MessageReceived",
            "type": "event"
        },
        {
            "anonymous": false,
            "inputs": [
                {
                    "indexed": true,
                    "internalType": "bytes32",
                    "name": "messageId",
                    "type": "bytes32"
                },
                {
                    "indexed": true,
                    "internalType": "uint64",
                    "name": "destinationChainSelector",
                    "type": "uint64"
                },
                {
                    "indexed": false,
                    "internalType": "address",
                    "name": "receiver",
                    "type": "address"
                },
                {
                    "indexed": false,
                    "internalType": "bytes32",
                    "name": "data",
                    "type": "bytes32"
                },
                {
                    "indexed": false,
                    "internalType": "address",
                    "name": "token",
                    "type": "address"
                },
                {
                    "indexed": false,
                    "internalType": "uint256",
                    "name": "tokenAmount",
                    "type": "uint256"
                },
                {
                    "indexed": false,
                    "internalType": "address",
                    "name": "feeToken",
                    "type": "address"
                },
                {
                    "indexed": false,
                    "internalType": "uint256",
                    "name": "fees",
                    "type": "uint256"
                }
            ],
            "name": "MessageSent",
            "type": "event"
        },
        {
            "anonymous": false,
            "inputs": [
                {
                    "indexed": true,
                    "internalType": "address",
                    "name": "from",
                    "type": "address"
                },
                {
                    "indexed": true,
                    "internalType": "address",
                    "name": "to",
                    "type": "address"
                }
            ],
            "name": "OwnershipTransferRequested",
            "type": "event"
        },
        {
            "anonymous": false,
            "inputs": [
                {
                    "indexed": true,
                    "internalType": "address",
                    "name": "from",
                    "type": "address"
                },
                {
                    "indexed": true,
                    "internalType": "address",
                    "name": "to",
                    "type": "address"
                }
            ],
            "name": "OwnershipTransferred",
            "type": "event"
        },
        {
            "anonymous": false,
            "inputs": [
                {
                    "indexed": true,
                    "internalType": "bytes32",
                    "name": "_commitment",
                    "type": "bytes32"
                },
                {
                    "indexed": false,
                    "internalType": "uint32",
                    "name": "leafIndex",
                    "type": "uint32"
                },
                {
                    "indexed": true,
                    "internalType": "bytes32",
                    "name": "_order_id_hash",
                    "type": "bytes32"
                },
                {
                    "indexed": false,
                    "internalType": "bytes32",
                    "name": "hashlock",
                    "type": "bytes32"
                }
            ],
            "name": "deposited_initiator",
            "type": "event"
        },
        {
            "anonymous": false,
            "inputs": [
                {
                    "indexed": true,
                    "internalType": "bytes32",
                    "name": "_commitment",
                    "type": "bytes32"
                },
                {
                    "indexed": false,
                    "internalType": "uint32",
                    "name": "leafIndex",
                    "type": "uint32"
                }
            ],
            "name": "deposited_responder",
            "type": "event"
        },
        {
            "anonymous": false,
            "inputs": [
                {
                    "indexed": true,
                    "internalType": "bytes32",
                    "name": "_order_id_hash",
                    "type": "bytes32"
                },
                {
                    "indexed": false,
                    "internalType": "bytes32",
                    "name": "_hashlock_nonce",
                    "type": "bytes32"
                }
            ],
            "name": "withdrawal_initiator",
            "type": "event"
        },
        {
            "anonymous": false,
            "inputs": [
                {
                    "indexed": true,
                    "internalType": "bytes32",
                    "name": "commitment",
                    "type": "bytes32"
                }
            ],
            "name": "withdrawal_responder",
            "type": "event"
        },
        {
            "inputs": [],
            "name": "FIELD_SIZE",
            "outputs": [
                {
                    "internalType": "uint256",
                    "name": "",
                    "type": "uint256"
                }
            ],
            "stateMutability": "view",
            "type": "function"
        },
        {
            "inputs": [],
            "name": "ROOT_HISTORY_SIZE",
            "outputs": [
                {
                    "internalType": "uint32",
                    "name": "",
                    "type": "uint32"
                }
            ],
            "stateMutability": "view",
            "type": "function"
        },
        {
            "inputs": [],
            "name": "SHARED_ROOT_HISTORY_SIZE",
            "outputs": [
                {
                    "internalType": "uint32",
                    "name": "",
                    "type": "uint32"
                }
            ],
            "stateMutability": "view",
            "type": "function"
        },
        {
            "inputs": [],
            "name": "SWAP_DENOMINATION",
            "outputs": [
                {
                    "internalType": "uint64",
                    "name": "",
                    "type": "uint64"
                }
            ],
            "stateMutability": "view",
            "type": "function"
        },
        {
            "inputs": [],
            "name": "ZERO_ELEMENT",
            "outputs": [
                {
                    "internalType": "bytes32",
                    "name": "",
                    "type": "bytes32"
                }
            ],
            "stateMutability": "view",
            "type": "function"
        },
        {
            "inputs": [],
            "name": "acceptOwnership",
            "outputs": [],
            "stateMutability": "nonpayable",
            "type": "function"
        },
        {
            "inputs": [
                {
                    "internalType": "uint64",
                    "name": "_destinationChainSelector",
                    "type": "uint64"
                },
                {
                    "internalType": "bool",
                    "name": "allowed",
                    "type": "bool"
                }
            ],
            "name": "allowlistDestinationChain",
            "outputs": [],
            "stateMutability": "nonpayable",
            "type": "function"
        },
        {
            "inputs": [
                {
                    "internalType": "address",
                    "name": "_sender",
                    "type": "address"
                },
                {
                    "internalType": "bool",
                    "name": "allowed",
                    "type": "bool"
                }
            ],
            "name": "allowlistSender",
            "outputs": [],
            "stateMutability": "nonpayable",
            "type": "function"
        },
        {
            "inputs": [
                {
                    "internalType": "uint64",
                    "name": "_sourceChainSelector",
                    "type": "uint64"
                },
                {
                    "internalType": "bool",
                    "name": "allowed",
                    "type": "bool"
                }
            ],
            "name": "allowlistSourceChain",
            "outputs": [],
            "stateMutability": "nonpayable",
            "type": "function"
        },
        {
            "inputs": [
                {
                    "internalType": "uint64",
                    "name": "",
                    "type": "uint64"
                }
            ],
            "name": "allowlistedDestinationChains",
            "outputs": [
                {
                    "internalType": "bool",
                    "name": "",
                    "type": "bool"
                }
            ],
            "stateMutability": "view",
            "type": "function"
        },
        {
            "inputs": [
                {
                    "internalType": "address",
                    "name": "",
                    "type": "address"
                }
            ],
            "name": "allowlistedSenders",
            "outputs": [
                {
                    "internalType": "bool",
                    "name": "",
                    "type": "bool"
                }
            ],
            "stateMutability": "view",
            "type": "function"
        },
        {
            "inputs": [
                {
                    "internalType": "uint64",
                    "name": "",
                    "type": "uint64"
                }
            ],
            "name": "allowlistedSourceChains",
            "outputs": [
                {
                    "internalType": "bool",
                    "name": "",
                    "type": "bool"
                }
            ],
            "stateMutability": "view",
            "type": "function"
        },
        {
            "inputs": [
                {
                    "components": [
                        {
                            "internalType": "bytes32",
                            "name": "messageId",
                            "type": "bytes32"
                        },
                        {
                            "internalType": "uint64",
                            "name": "sourceChainSelector",
                            "type": "uint64"
                        },
                        {
                            "internalType": "bytes",
                            "name": "sender",
                            "type": "bytes"
                        },
                        {
                            "internalType": "bytes",
                            "name": "data",
                            "type": "bytes"
                        },
                        {
                            "components": [
                                {
                                    "internalType": "address",
                                    "name": "token",
                                    "type": "address"
                                },
                                {
                                    "internalType": "uint256",
                                    "name": "amount",
                                    "type": "uint256"
                                }
                            ],
                            "internalType": "struct Client.EVMTokenAmount[]",
                            "name": "destTokenAmounts",
                            "type": "tuple[]"
                        }
                    ],
                    "internalType": "struct Client.Any2EVMMessage",
                    "name": "message",
                    "type": "tuple"
                }
            ],
            "name": "ccipReceive",
            "outputs": [],
            "stateMutability": "nonpayable",
            "type": "function"
        },
        {
            "inputs": [
                {
                    "internalType": "bytes32",
                    "name": "_commitment",
                    "type": "bytes32"
                },
                {
                    "internalType": "bytes32",
                    "name": "_order_id_hash",
                    "type": "bytes32"
                },
                {
                    "internalType": "bytes32",
                    "name": "_hashlock",
                    "type": "bytes32"
                },
                {
                    "internalType": "bool",
                    "name": "_crossChain",
                    "type": "bool"
                },
                {
                    "internalType": "address",
                    "name": "_destinationZtomicAddress",
                    "type": "address"
                }
            ],
            "name": "deposit_initiator",
            "outputs": [],
            "stateMutability": "nonpayable",
            "type": "function"
        },
        {
            "inputs": [
                {
                    "internalType": "bytes32",
                    "name": "_commitment",
                    "type": "bytes32"
                },
                {
                    "internalType": "bool",
                    "name": "_crossChain",
                    "type": "bool"
                },
                {
                    "internalType": "address",
                    "name": "_destinationZtomicAddress",
                    "type": "address"
                }
            ],
            "name": "deposit_responder",
            "outputs": [],
            "stateMutability": "nonpayable",
            "type": "function"
        },
        {
            "inputs": [
                {
                    "internalType": "uint256",
                    "name": "",
                    "type": "uint256"
                }
            ],
            "name": "destinationChainSelectors",
            "outputs": [
                {
                    "internalType": "uint64",
                    "name": "",
                    "type": "uint64"
                }
            ],
            "stateMutability": "view",
            "type": "function"
        },
        {
            "inputs": [],
            "name": "getLastReceivedMessageDetails",
            "outputs": [
                {
                    "internalType": "bytes32",
                    "name": "messageId",
                    "type": "bytes32"
                },
                {
                    "internalType": "bytes32",
                    "name": "data",
                    "type": "bytes32"
                },
                {
                    "internalType": "address",
                    "name": "tokenAddress",
                    "type": "address"
                },
                {
                    "internalType": "uint256",
                    "name": "tokenAmount",
                    "type": "uint256"
                }
            ],
            "stateMutability": "view",
            "type": "function"
        },
        {
            "inputs": [],
            "name": "getLatestRoot",
            "outputs": [
                {
                    "internalType": "bytes32",
                    "name": "",
                    "type": "bytes32"
                }
            ],
            "stateMutability": "view",
            "type": "function"
        },
        {
            "inputs": [],
            "name": "getRouter",
            "outputs": [
                {
                    "internalType": "address",
                    "name": "",
                    "type": "address"
                }
            ],
            "stateMutability": "view",
            "type": "function"
        },
        {
            "inputs": [
                {
                    "internalType": "bytes32",
                    "name": "_left",
                    "type": "bytes32"
                },
                {
                    "internalType": "bytes32",
                    "name": "_right",
                    "type": "bytes32"
                }
            ],
            "name": "hashLeftRight",
            "outputs": [
                {
                    "internalType": "bytes32",
                    "name": "",
                    "type": "bytes32"
                }
            ],
            "stateMutability": "view",
            "type": "function"
        },
        {
            "inputs": [],
            "name": "i_depth",
            "outputs": [
                {
                    "internalType": "uint32",
                    "name": "",
                    "type": "uint32"
                }
            ],
            "stateMutability": "view",
            "type": "function"
        },
        {
            "inputs": [],
            "name": "i_hasher",
            "outputs": [
                {
                    "internalType": "contract Poseidon2",
                    "name": "",
                    "type": "address"
                }
            ],
            "stateMutability": "view",
            "type": "function"
        },
        {
            "inputs": [
                {
                    "internalType": "bytes32",
                    "name": "_root",
                    "type": "bytes32"
                }
            ],
            "name": "isKnownRoot",
            "outputs": [
                {
                    "internalType": "bool",
                    "name": "",
                    "type": "bool"
                }
            ],
            "stateMutability": "view",
            "type": "function"
        },
        {
            "inputs": [
                {
                    "internalType": "bytes32",
                    "name": "_root",
                    "type": "bytes32"
                }
            ],
            "name": "isKnownSharedRoot",
            "outputs": [
                {
                    "internalType": "bool",
                    "name": "",
                    "type": "bool"
                }
            ],
            "stateMutability": "view",
            "type": "function"
        },
        {
            "inputs": [],
            "name": "owner",
            "outputs": [
                {
                    "internalType": "address",
                    "name": "",
                    "type": "address"
                }
            ],
            "stateMutability": "view",
            "type": "function"
        },
        {
            "inputs": [
                {
                    "internalType": "uint256",
                    "name": "",
                    "type": "uint256"
                }
            ],
            "name": "s_cachedSubtrees",
            "outputs": [
                {
                    "internalType": "bytes32",
                    "name": "",
                    "type": "bytes32"
                }
            ],
            "stateMutability": "view",
            "type": "function"
        },
        {
            "inputs": [],
            "name": "s_currentRootIndex",
            "outputs": [
                {
                    "internalType": "uint32",
                    "name": "",
                    "type": "uint32"
                }
            ],
            "stateMutability": "view",
            "type": "function"
        },
        {
            "inputs": [],
            "name": "s_currentSharedRootIndex",
            "outputs": [
                {
                    "internalType": "uint32",
                    "name": "",
                    "type": "uint32"
                }
            ],
            "stateMutability": "view",
            "type": "function"
        },
        {
            "inputs": [
                {
                    "internalType": "bytes32",
                    "name": "",
                    "type": "bytes32"
                }
            ],
            "name": "s_initiator_commitments",
            "outputs": [
                {
                    "internalType": "bool",
                    "name": "",
                    "type": "bool"
                }
            ],
            "stateMutability": "view",
            "type": "function"
        },
        {
            "inputs": [],
            "name": "s_nextLeafIndex",
            "outputs": [
                {
                    "internalType": "uint32",
                    "name": "",
                    "type": "uint32"
                }
            ],
            "stateMutability": "view",
            "type": "function"
        },
        {
            "inputs": [
                {
                    "internalType": "bytes32",
                    "name": "",
                    "type": "bytes32"
                }
            ],
            "name": "s_nullifierHashes",
            "outputs": [
                {
                    "internalType": "bool",
                    "name": "",
                    "type": "bool"
                }
            ],
            "stateMutability": "view",
            "type": "function"
        },
        {
            "inputs": [
                {
                    "internalType": "bytes32",
                    "name": "",
                    "type": "bytes32"
                }
            ],
            "name": "s_responder_commitments",
            "outputs": [
                {
                    "internalType": "bool",
                    "name": "",
                    "type": "bool"
                }
            ],
            "stateMutability": "view",
            "type": "function"
        },
        {
            "inputs": [
                {
                    "internalType": "uint256",
                    "name": "",
                    "type": "uint256"
                }
            ],
            "name": "s_roots",
            "outputs": [
                {
                    "internalType": "bytes32",
                    "name": "",
                    "type": "bytes32"
                }
            ],
            "stateMutability": "view",
            "type": "function"
        },
        {
            "inputs": [
                {
                    "internalType": "bytes32",
                    "name": "",
                    "type": "bytes32"
                }
            ],
            "name": "s_sharedNullifierHashes",
            "outputs": [
                {
                    "internalType": "bool",
                    "name": "",
                    "type": "bool"
                }
            ],
            "stateMutability": "view",
            "type": "function"
        },
        {
            "inputs": [
                {
                    "internalType": "uint32",
                    "name": "",
                    "type": "uint32"
                }
            ],
            "name": "s_sharedRootsMapping",
            "outputs": [
                {
                    "internalType": "bytes32",
                    "name": "",
                    "type": "bytes32"
                }
            ],
            "stateMutability": "view",
            "type": "function"
        },
        {
            "inputs": [],
            "name": "s_stableOne",
            "outputs": [
                {
                    "internalType": "contract IERC20",
                    "name": "",
                    "type": "address"
                }
            ],
            "stateMutability": "view",
            "type": "function"
        },
        {
            "inputs": [],
            "name": "s_stableTwo",
            "outputs": [
                {
                    "internalType": "contract IERC20",
                    "name": "",
                    "type": "address"
                }
            ],
            "stateMutability": "view",
            "type": "function"
        },
        {
            "inputs": [
                {
                    "internalType": "bytes4",
                    "name": "interfaceId",
                    "type": "bytes4"
                }
            ],
            "name": "supportsInterface",
            "outputs": [
                {
                    "internalType": "bool",
                    "name": "",
                    "type": "bool"
                }
            ],
            "stateMutability": "pure",
            "type": "function"
        },
        {
            "inputs": [
                {
                    "internalType": "address",
                    "name": "to",
                    "type": "address"
                }
            ],
            "name": "transferOwnership",
            "outputs": [],
            "stateMutability": "nonpayable",
            "type": "function"
        },
        {
            "inputs": [],
            "name": "verifierA",
            "outputs": [
                {
                    "internalType": "contract IVerifier",
                    "name": "",
                    "type": "address"
                }
            ],
            "stateMutability": "view",
            "type": "function"
        },
        {
            "inputs": [],
            "name": "verifierB",
            "outputs": [
                {
                    "internalType": "contract IVerifier",
                    "name": "",
                    "type": "address"
                }
            ],
            "stateMutability": "view",
            "type": "function"
        },
        {
            "inputs": [
                {
                    "internalType": "address",
                    "name": "_beneficiary",
                    "type": "address"
                }
            ],
            "name": "withdraw",
            "outputs": [],
            "stateMutability": "nonpayable",
            "type": "function"
        },
        {
            "inputs": [
                {
                    "internalType": "address",
                    "name": "_beneficiary",
                    "type": "address"
                },
                {
                    "internalType": "address",
                    "name": "_token",
                    "type": "address"
                }
            ],
            "name": "withdrawToken",
            "outputs": [],
            "stateMutability": "nonpayable",
            "type": "function"
        },
        {
            "inputs": [
                {
                    "internalType": "bytes",
                    "name": "_proof",
                    "type": "bytes"
                },
                {
                    "internalType": "bytes32",
                    "name": "_nullifierHash",
                    "type": "bytes32"
                },
                {
                    "internalType": "bytes32",
                    "name": "_root",
                    "type": "bytes32"
                },
                {
                    "internalType": "bytes32",
                    "name": "_hashlock_nonce",
                    "type": "bytes32"
                },
                {
                    "internalType": "bytes32",
                    "name": "_order_id_hash",
                    "type": "bytes32"
                },
                {
                    "internalType": "address",
                    "name": "_recipient",
                    "type": "address"
                }
            ],
            "name": "withdraw_initiator",
            "outputs": [],
            "stateMutability": "nonpayable",
            "type": "function"
        },
        {
            "inputs": [
                {
                    "internalType": "bytes",
                    "name": "_proof",
                    "type": "bytes"
                },
                {
                    "internalType": "bytes32",
                    "name": "_nullifierHash",
                    "type": "bytes32"
                },
                {
                    "internalType": "bytes32",
                    "name": "_root",
                    "type": "bytes32"
                },
                {
                    "internalType": "address",
                    "name": "_recipient",
                    "type": "address"
                }
            ],
            "name": "withdraw_responder",
            "outputs": [],
            "stateMutability": "nonpayable",
            "type": "function"
        },
        {
            "inputs": [
                {
                    "internalType": "uint256",
                    "name": "i",
                    "type": "uint256"
                }
            ],
            "name": "zeros",
            "outputs": [
                {
                    "internalType": "bytes32",
                    "name": "",
                    "type": "bytes32"
                }
            ],
            "stateMutability": "pure",
            "type": "function"
        },
        {
            "inputs": [],
            "name": "ztomic_ccip_router",
            "outputs": [
                {
                    "internalType": "contract IProgrammableTokenTransfers",
                    "name": "",
                    "type": "address"
                }
            ],
            "stateMutability": "view",
            "type": "function"
        },
        {
            "stateMutability": "payable",
            "type": "receive"
        }
    ],
    "bytecode": "0x60e06040525f60025f6101000a81548163ffffffff021916908363ffffffff1602179055505f600260046101000a81548163ffffffff021916908363ffffffff160217905550601e600b60146101000a81548163ffffffff021916908363ffffffff1602179055505f600b60186101000a81548163ffffffff021916908363ffffffff160217905550620f4240600c5f6101000a81548167ffffffffffffffff021916908367ffffffffffffffff1602179055503480156100be575f5ffd5b5060405161670638038061670683398181016040528101906100e09190610e20565b848433805f848e8e5f8263ffffffff160361013257816040517fad6421220000000000000000000000000000000000000000000000000000000081526004016101299190610ef3565b60405180910390fd5b60208263ffffffff161061017d57816040517f79671ced0000000000000000000000000000000000000000000000000000000081526004016101749190610ef3565b60405180910390fd5b8163ffffffff1660a08163ffffffff16815250508073ffffffffffffffffffffffffffffffffffffffff1660808173ffffffffffffffffffffffffffffffffffffffff16815250506101da8263ffffffff1661056260201b60201c565b60015f5f81526020019081526020015f208190555050505f73ffffffffffffffffffffffffffffffffffffffff168173ffffffffffffffffffffffffffffffffffffffff1603610261575f6040517fd7f733340000000000000000000000000000000000000000000000000000000081526004016102589190610f1b565b60405180910390fd5b8073ffffffffffffffffffffffffffffffffffffffff1660c08173ffffffffffffffffffffffffffffffffffffffff1681525050505f73ffffffffffffffffffffffffffffffffffffffff168273ffffffffffffffffffffffffffffffffffffffff1603610304576040517f08c379a00000000000000000000000000000000000000000000000000000000081526004016102fb90610f8e565b60405180910390fd5b81600260086101000a81548173ffffffffffffffffffffffffffffffffffffffff021916908373ffffffffffffffffffffffffffffffffffffffff1602179055505f73ffffffffffffffffffffffffffffffffffffffff168173ffffffffffffffffffffffffffffffffffffffff16146103885761038781610be460201b60201c565b5b50505080600b5f6101000a81548173ffffffffffffffffffffffffffffffffffffffff021916908373ffffffffffffffffffffffffffffffffffffffff160217905550505086600c60086101000a81548173ffffffffffffffffffffffffffffffffffffffff021916908373ffffffffffffffffffffffffffffffffffffffff16021790555085600d5f6101000a81548173ffffffffffffffffffffffffffffffffffffffff021916908373ffffffffffffffffffffffffffffffffffffffff16021790555084600e5f6101000a81548173ffffffffffffffffffffffffffffffffffffffff021916908373ffffffffffffffffffffffffffffffffffffffff1602179055508260115f600581106104a3576104a2610fac565b5b600491828204019190066008026101000a81548167ffffffffffffffff021916908367ffffffffffffffff16021790555081600f5f6101000a81548173ffffffffffffffffffffffffffffffffffffffff021916908373ffffffffffffffffffffffffffffffffffffffff1602179055508060105f6101000a81548173ffffffffffffffffffffffffffffffffffffffff021916908373ffffffffffffffffffffffffffffffffffffffff160217905550505050505050505050611072565b5f5f8203610594577f0d823319708ab99ec915efd4f7e03d11ca1790918e8f04cd14100aceca2aa9ff5f1b9050610bdf565b600182036105c6577f170a9598425eb05eb8dc06986c6afc717811e874326a79576c02d338bdf14f135f1b9050610bdf565b600282036105f8577f273b1a40397b618dac2fc66ceb71399a3e1a60341e546e053cbfa5995e824caf5f1b9050610bdf565b6003820361062a577f16bf9b1fb2dfa9d88cfb1752d6937a1594d257c2053dff3cb971016bfcffe2a15f1b9050610bdf565b6004820361065c577f1288271e1f93a29fa6e748b7468a77a9b8fc3db6b216ce5fc2601fc3e9bd6b365f1b9050610bdf565b6005820361068e577f1d47548adec1068354d163be4ffa348ca89f079b039c9191378584abd79edeca5f1b9050610bdf565b600682036106c0577f0b98a89e6827ef697b8fb2e280a2342d61db1eb5efc229f5f4a77fb333b80bef5f1b9050610bdf565b600782036106f2577f231555e37e6b206f43fdcd4d660c47442d76aab1ef552aef6db45f3f9cf2e9555f1b9050610bdf565b60088203610724577f03d0dc8c92e2844abcc5fdefe8cb67d93034de0862943990b09c6b8e3fa27a865f1b9050610bdf565b60098203610756577f1d51ac275f47f10e592b8e690fd3b28a76106893ac3e60cd7b2a3a443f4e83555f1b9050610bdf565b600a8203610788577f16b671eb844a8e4e463e820e26560357edee4ecfdbf5d7b0a28799911505088d5f1b9050610bdf565b600b82036107ba577f115ea0c2f132c5914d5bb737af6eed04115a3896f0d65e12e761ca560083da155f1b9050610bdf565b600c82036107ec577f139a5b42099806c76efb52da0ec1dde06a836bf6f87ef7ab4bac7d00637e28f05f1b9050610bdf565b600d820361081e577f0804853482335a6533eb6a4ddfc215a08026db413d247a7695e807e38debea8e5f1b9050610bdf565b600e8203610850577f2f0b264ab5f5630b591af93d93ec2dfed28eef017b251e40905cdf79836898035f1b9050610bdf565b600f8203610882577f170fc161bf1b9610bf196c173bdae82c4adfd93888dc317f5010822a3ba9ebee5f1b9050610bdf565b601082036108b4577f0b2e7665b17622cc0243b6fa35110aa7dd0ee3cc9409650172aa786ca59714395f1b9050610bdf565b601182036108e6577f12d5a033cbeff854c5ba0c5628ac4628104be6ab370699a1b2b4209e518b0ac55f1b9050610bdf565b60128203610918577f1bc59846eb7eafafc85ba9a99a89562763735322e4255b7c1788a8fe8b90bf5d5f1b9050610bdf565b6013820361094a577f1b9421fbd79f6972a348a3dd4721781ec25a5d8d27342942ae00aba80a3904d45f1b9050610bdf565b6014820361097c577f087fde1c4c9c27c347f347083139eee8759179d255ec8381c02298d3d6ccd2335f1b9050610bdf565b601582036109ae577f1e26b1884cb500b5e6bbfdeedbdca34b961caf3fa9839ea794bfc7f87d10b3f15f1b9050610bdf565b601682036109e0577f09fc1a538b88bda55a53253c62c153e67e8289729afd9b8bfd3f46f5eecd5a725f1b9050610bdf565b60178203610a12577f14cd0edec3423652211db5210475a230ca4771cd1e45315bcd6ea640f14077e25f1b9050610bdf565b60188203610a44577f1d776a76bc76f4305ef0b0b27a58a9565864fe1b9f2a198e8247b3e599e036ca5f1b9050610bdf565b60198203610a76577f1f93e3103fed2d3bd056c3ac49b4a0728578be33595959788fa25514cdb5d42f5f1b9050610bdf565b601a8203610aa8577f138b0576ee7346fb3f6cfb632f92ae206395824b9333a183c15470404c977a3b5f1b9050610bdf565b601b8203610ada577f0745de8522abfcd24bd50875865592f73a190070b4cb3d8976e3dbff8fdb7f3d5f1b9050610bdf565b601c8203610b0c577f2ffb8c798b9dd2645e9187858cb92a86c86dcd1138f5d610c33df2696f5f68605f1b9050610bdf565b601d8203610b3e577f2612a1395168260c9999287df0e3c3f1b0d8e008e90cd15941e4c2df08a68a5a5f1b9050610bdf565b601e8203610b70577f10ebedce66a910039c8edb2cd832d6a9857648ccff5e99b5d08009b44b088edf5f1b9050610bdf565b601f8203610ba2577f213fb841f9de06958cf4403477bdbff7c59d6249daabfee147f853db7c8080825f1b9050610bdf565b816040517f76de0238000000000000000000000000000000000000000000000000000000008152600401610bd69190610ff1565b60405180910390fd5b919050565b3373ffffffffffffffffffffffffffffffffffffffff168173ffffffffffffffffffffffffffffffffffffffff1603610c52576040517f08c379a0000000000000000000000000000000000000000000000000000000008152600401610c4990611054565b60405180910390fd5b8060035f6101000a81548173ffffffffffffffffffffffffffffffffffffffff021916908373ffffffffffffffffffffffffffffffffffffffff1602179055508073ffffffffffffffffffffffffffffffffffffffff16600260089054906101000a900473ffffffffffffffffffffffffffffffffffffffff1673ffffffffffffffffffffffffffffffffffffffff167fed8889f560326eb138920d842192f0eb3dd22b4f139c87a2c57538e05bae127860405160405180910390a350565b5f5ffd5b5f63ffffffff82169050919050565b610d2d81610d15565b8114610d37575f5ffd5b50565b5f81519050610d4881610d24565b92915050565b5f73ffffffffffffffffffffffffffffffffffffffff82169050919050565b5f610d7782610d4e565b9050919050565b5f610d8882610d6d565b9050919050565b610d9881610d7e565b8114610da2575f5ffd5b50565b5f81519050610db381610d8f565b92915050565b610dc281610d6d565b8114610dcc575f5ffd5b50565b5f81519050610ddd81610db9565b92915050565b5f67ffffffffffffffff82169050919050565b610dff81610de3565b8114610e09575f5ffd5b50565b5f81519050610e1a81610df6565b92915050565b5f5f5f5f5f5f5f5f5f6101208a8c031215610e3e57610e3d610d11565b5b5f610e4b8c828d01610d3a565b9950506020610e5c8c828d01610da5565b9850506040610e6d8c828d01610dcf565b9750506060610e7e8c828d01610dcf565b9650506080610e8f8c828d01610dcf565b95505060a0610ea08c828d01610dcf565b94505060c0610eb18c828d01610e0c565b93505060e0610ec28c828d01610dcf565b925050610100610ed48c828d01610dcf565b9150509295985092959850929598565b610eed81610d15565b82525050565b5f602082019050610f065f830184610ee4565b92915050565b610f1581610d6d565b82525050565b5f602082019050610f2e5f830184610f0c565b92915050565b5f82825260208201905092915050565b7f43616e6e6f7420736574206f776e657220746f207a65726f00000000000000005f82015250565b5f610f78601883610f34565b9150610f8382610f44565b602082019050919050565b5f6020820190508181035f830152610fa581610f6c565b9050919050565b7f4e487b71000000000000000000000000000000000000000000000000000000005f52603260045260245ffd5b5f819050919050565b610feb81610fd9565b82525050565b5f6020820190506110045f830184610fe2565b92915050565b7f43616e6e6f74207472616e7366657220746f2073656c660000000000000000005f82015250565b5f61103e601783610f34565b91506110498261100a565b602082019050919050565b5f6020820190508181035f83015261106b81611032565b9050919050565b60805160a05160c0516156556110b15f395f611a5201525f8181611509015281816129dd0152612a6801525f8181610d8b01526114e501526156555ff3fe60806040526004361061028b575f3560e01c806380234f7311610159578063ca21fc7a116100c0578063ed7cf2df11610079578063ed7cf2df14610a29578063ed7daeb814610a65578063eec378c414610a8d578063f2fde38b14610ab7578063f75cd26a14610adf578063f84338be14610b1b57610292565b8063ca21fc7a1461090d578063cd87a3b414610937578063db04fa4914610961578063e829558814610989578063eab5b02c146109c5578063eae9335d146109ed57610292565b8063946d559111610112578063946d5591146107f157806396d3b83d1461082d5780639c8b91c114610855578063b0f479a114610891578063b9ec20dc146108bb578063c902dcfe146108e357610292565b806380234f73146106e757806380de63851461070f57806385572ffb14610739578063871211df146107615780638da5cb5b1461078b578063942d898f146107b557610292565b80635445b007116101fd57806365946e04116101b657806365946e04146105db5780636d9833e314610605578063705f032f1461064157806373d732021461066b57806375c67c661461069557806379ba5097146106d157610292565b80635445b007146104bd57806357f65706146104e757806359f41a81146105115780636159ada11461053b57806364bc5e661461057757806365174af81461059f57610292565b806338bf282e1161024f57806338bf282e146103a15780633aeac4e1146103dd5780634030d52114610405578063414a37ba146104415780634c64072a1461046b57806351cff8d91461049557610292565b806301ffc9a7146102965780630d90f6a3146102d257806317e23788146102fc578063263596a51461033857806337341eda1461036557610292565b3661029257005b5f5ffd5b3480156102a1575f5ffd5b506102bc60048036038101906102b79190613bed565b610b45565b6040516102c99190613c32565b60405180910390f35b3480156102dd575f5ffd5b506102e6610c16565b6040516102f39190613c69565b60405180910390f35b348015610307575f5ffd5b50610322600480360381019061031d9190613cb5565b610c2c565b60405161032f9190613d02565b60405180910390f35b348015610343575f5ffd5b5061034c610c5f565b60405161035c9493929190613d81565b60405180910390f35b348015610370575f5ffd5b5061038b60048036038101906103869190613dee565b610c9c565b6040516103989190613c32565b60405180910390f35b3480156103ac575f5ffd5b506103c760048036038101906103c29190613e19565b610cb9565b6040516103d49190613e57565b60405180910390f35b3480156103e8575f5ffd5b5061040360048036038101906103fe9190613e9a565b610e40565b005b348015610410575f5ffd5b5061042b60048036038101906104269190613f02565b610f2c565b6040516104389190613c32565b60405180910390f35b34801561044c575f5ffd5b50610455610f49565b6040516104629190613f2d565b60405180910390f35b348015610476575f5ffd5b5061047f610f6d565b60405161048c9190613c69565b60405180910390f35b3480156104a0575f5ffd5b506104bb60048036038101906104b69190613f46565b610f83565b005b3480156104c8575f5ffd5b506104d161107b565b6040516104de9190613e57565b60405180910390f35b3480156104f2575f5ffd5b506104fb6110aa565b6040516105089190613c69565b60405180910390f35b34801561051c575f5ffd5b506105256110bf565b6040516105329190613c69565b60405180910390f35b348015610546575f5ffd5b50610561600480360381019061055c9190613f46565b6110d5565b60405161056e9190613c32565b60405180910390f35b348015610582575f5ffd5b5061059d60048036038101906105989190613fd2565b6110f2565b005b3480156105aa575f5ffd5b506105c560048036038101906105c09190613dee565b61141a565b6040516105d29190613c32565b60405180910390f35b3480156105e6575f5ffd5b506105ef611437565b6040516105fc9190613d02565b60405180910390f35b348015610610575f5ffd5b5061062b60048036038101906106269190613dee565b611450565b6040516106389190613c32565b60405180910390f35b34801561064c575f5ffd5b506106556114e3565b60405161066291906140b1565b60405180910390f35b348015610676575f5ffd5b5061067f611507565b60405161068c9190613c69565b60405180910390f35b3480156106a0575f5ffd5b506106bb60048036038101906106b69190613f02565b61152b565b6040516106c89190613c32565b60405180910390f35b3480156106dc575f5ffd5b506106e5611548565b005b3480156106f2575f5ffd5b5061070d600480360381019061070891906140f4565b6116db565b005b34801561071a575f5ffd5b506107236118c0565b604051610730919061418b565b60405180910390f35b348015610744575f5ffd5b5061075f600480360381019061075a91906141c6565b6118e5565b005b34801561076c575f5ffd5b50610775611971565b6040516107829190613e57565b60405180910390f35b348015610796575f5ffd5b5061079f611997565b6040516107ac919061420d565b60405180910390f35b3480156107c0575f5ffd5b506107db60048036038101906107d69190613dee565b6119c0565b6040516107e89190613c32565b60405180910390f35b3480156107fc575f5ffd5b5061081760048036038101906108129190614250565b6119dd565b6040516108249190613e57565b60405180910390f35b348015610838575f5ffd5b50610853600480360381019061084e919061427b565b6119f2565b005b348015610860575f5ffd5b5061087b60048036038101906108769190613cb5565b611a3a565b6040516108889190613e57565b60405180910390f35b34801561089c575f5ffd5b506108a5611a4f565b6040516108b2919061420d565b60405180910390f35b3480156108c6575f5ffd5b506108e160048036038101906108dc91906142b9565b611a76565b005b3480156108ee575f5ffd5b506108f7611df8565b604051610904919061418b565b60405180910390f35b348015610918575f5ffd5b50610921611e1e565b60405161092e9190614383565b60405180910390f35b348015610942575f5ffd5b5061094b611e43565b6040516109589190613c69565b60405180910390f35b34801561096c575f5ffd5b506109876004803603810190610982919061427b565b611e48565b005b348015610994575f5ffd5b506109af60048036038101906109aa9190613cb5565b611e90565b6040516109bc9190613e57565b60405180910390f35b3480156109d0575f5ffd5b506109eb60048036038101906109e6919061439c565b612512565b005b3480156109f8575f5ffd5b50610a136004803603810190610a0e9190613dee565b612572565b604051610a209190613c32565b60405180910390f35b348015610a34575f5ffd5b50610a4f6004803603810190610a4a9190613cb5565b612623565b604051610a5c9190613e57565b60405180910390f35b348015610a70575f5ffd5b50610a8b6004803603810190610a8691906143da565b612637565b005b348015610a98575f5ffd5b50610aa1612816565b604051610aae919061444a565b60405180910390f35b348015610ac2575f5ffd5b50610add6004803603810190610ad89190613f46565b61283b565b005b348015610aea575f5ffd5b50610b056004803603810190610b009190613dee565b61284f565b604051610b129190613c32565b60405180910390f35b348015610b26575f5ffd5b50610b2f61286c565b604051610b3c919061444a565b60405180910390f35b5f7f85572ffb000000000000000000000000000000000000000000000000000000007bffffffffffffffffffffffffffffffffffffffffffffffffffffffff1916827bffffffffffffffffffffffffffffffffffffffffffffffffffffffff19161480610c0f57507f01ffc9a7000000000000000000000000000000000000000000000000000000007bffffffffffffffffffffffffffffffffffffffffffffffffffffffff1916827bffffffffffffffffffffffffffffffffffffffffffffffffffffffff1916145b9050919050565b600b60189054906101000a900463ffffffff1681565b60118160058110610c3b575f80fd5b60049182820401919006600802915054906101000a900467ffffffffffffffff1681565b5f5f5f5f60045460075460055f9054906101000a900473ffffffffffffffffffffffffffffffffffffffff16600654935093509350935090919293565b6017602052805f5260405f205f915054906101000a900460ff1681565b5f7f30644e72e131a029b85045b68181585d2833e84879b9709143e1f593f0000001835f1c10610d2057826040517f8636b86a000000000000000000000000000000000000000000000000000000008152600401610d179190613e57565b60405180910390fd5b7f30644e72e131a029b85045b68181585d2833e84879b9709143e1f593f0000001825f1c10610d8657816040517f51da4a5b000000000000000000000000000000000000000000000000000000008152600401610d7d9190613e57565b60405180910390fd5b610e387f000000000000000000000000000000000000000000000000000000000000000073ffffffffffffffffffffffffffffffffffffffff1663055d8d54610dce86612891565b610dd786612891565b6040518363ffffffff1660e01b8152600401610df4929190614493565b602060405180830381865afa158015610e0f573d5f5f3e3d5ffd5b505050506040513d601f19601f82011682018060405250810190610e3391906144e4565b6128a3565b905092915050565b610e486128ac565b5f8173ffffffffffffffffffffffffffffffffffffffff166370a08231306040518263ffffffff1660e01b8152600401610e82919061420d565b602060405180830381865afa158015610e9d573d5f5f3e3d5ffd5b505050506040513d601f19601f82011682018060405250810190610ec19190614523565b90505f8103610efc576040517fd0d04f6000000000000000000000000000000000000000000000000000000000815260040160405180910390fd5b610f2783828473ffffffffffffffffffffffffffffffffffffffff1661293e9092919063ffffffff16565b505050565b6009602052805f5260405f205f915054906101000a900460ff1681565b7f30644e72e131a029b85045b68181585d2833e84879b9709143e1f593f000000181565b600b60149054906101000a900463ffffffff1681565b610f8b6128ac565b5f4790505f8103610fc8576040517fd0d04f6000000000000000000000000000000000000000000000000000000000815260040160405180910390fd5b5f8273ffffffffffffffffffffffffffffffffffffffff1682604051610fed9061457b565b5f6040518083038185875af1925050503d805f8114611027576040519150601f19603f3d011682016040523d82523d5f602084013e61102c565b606091505b5050905080611076573383836040517f9d11f56300000000000000000000000000000000000000000000000000000000815260040161106d9392919061458f565b60405180910390fd5b505050565b5f60015f60025f9054906101000a900463ffffffff1663ffffffff1681526020019081526020015f2054905090565b60025f9054906101000a900463ffffffff1681565b600260049054906101000a900463ffffffff1681565b600a602052805f5260405f205f915054906101000a900460ff1681565b60135f8481526020019081526020015f205f9054906101000a900460ff1680611135575060175f8481526020019081526020015f205f9054906101000a900460ff165b1561117757826040517f6d20dfa200000000000000000000000000000000000000000000000000000000815260040161116e9190613e57565b60405180910390fd5b61118082611450565b158015611193575061119182612572565b155b156111d557816040517fd368facf0000000000000000000000000000000000000000000000000000000081526004016111cc9190613e57565b60405180910390fd5b5f600267ffffffffffffffff8111156111f1576111f06145c4565b5b60405190808252806020026020018201604052801561121f5781602001602082028036833780820191505090505b50905083815f81518110611236576112356145f1565b5b6020026020010181815250508281600181518110611257576112566145f1565b5b60200260200101818152505060105f9054906101000a900473ffffffffffffffffffffffffffffffffffffffff1673ffffffffffffffffffffffffffffffffffffffff1663ea50d0e48787846040518463ffffffff1660e01b81526004016112c19392919061472f565b602060405180830381865afa1580156112dc573d5f5f3e3d5ffd5b505050506040513d601f19601f82011682018060405250810190611300919061477a565b611336576040517f48bd1d1a00000000000000000000000000000000000000000000000000000000815260040160405180910390fd5b600160135f8681526020019081526020015f205f6101000a81548160ff021916908315150217905550600c60089054906101000a900473ffffffffffffffffffffffffffffffffffffffff1673ffffffffffffffffffffffffffffffffffffffff1663a9059cbb83600c5f9054906101000a900467ffffffffffffffff166040518363ffffffff1660e01b81526004016113d19291906147d5565b6020604051808303815f875af11580156113ed573d5f5f3e3d5ffd5b505050506040513d601f19601f82011682018060405250810190611411919061477a565b50505050505050565b6013602052805f5260405f205f915054906101000a900460ff1681565b600c5f9054906101000a900467ffffffffffffffff1681565b5f5f5f1b8203611462575f90506114de565b5f60025f9054906101000a900463ffffffff1690505f8190505b60015f8263ffffffff1681526020019081526020015f205484036114a5576001925050506114de565b5f8163ffffffff16036114b757601e90505b80806114c290614829565b9150508163ffffffff168163ffffffff160361147c575f925050505b919050565b7f000000000000000000000000000000000000000000000000000000000000000081565b7f000000000000000000000000000000000000000000000000000000000000000081565b6008602052805f5260405f205f915054906101000a900460ff1681565b60035f9054906101000a900473ffffffffffffffffffffffffffffffffffffffff1673ffffffffffffffffffffffffffffffffffffffff163373ffffffffffffffffffffffffffffffffffffffff16146115d7576040517f08c379a00000000000000000000000000000000000000000000000000000000081526004016115ce906148aa565b60405180910390fd5b5f600260089054906101000a900473ffffffffffffffffffffffffffffffffffffffff16905033600260086101000a81548173ffffffffffffffffffffffffffffffffffffffff021916908373ffffffffffffffffffffffffffffffffffffffff1602179055505f60035f6101000a81548173ffffffffffffffffffffffffffffffffffffffff021916908373ffffffffffffffffffffffffffffffffffffffff1602179055503373ffffffffffffffffffffffffffffffffffffffff168173ffffffffffffffffffffffffffffffffffffffff167f8be0079c531659141344cd1fd0a4f28419497f9722a3daafe3b4186f6b6457e060405160405180910390a350565b60145f8681526020019081526020015f205f9054906101000a900460ff1615611730576040517fbd3d733500000000000000000000000000000000000000000000000000000000815260040160405180910390fd5b5f600c5f9054906101000a900467ffffffffffffffff1690505f600c60089054906101000a900473ffffffffffffffffffffffffffffffffffffffff1690508073ffffffffffffffffffffffffffffffffffffffff166323b872dd3330856040518463ffffffff1660e01b81526004016117ac939291906148c8565b6020604051808303815f875af11580156117c8573d5f5f3e3d5ffd5b505050506040513d601f19601f820116820180604052508101906117ec919061477a565b50600160145f8981526020019081526020015f205f6101000a81548160ff0219169083151502179055505f611820886129c4565b9050841561187b5761187960115f6005811061183f5761183e6145f1565b5b600491828204019190066008029054906101000a900467ffffffffffffffff168561186861107b565b858767ffffffffffffffff16612bd1565b505b86887fb7c1d7841675fbfc6116d1b0cbc9c6799ef65a9e2ec8db485b290667b7eacfc283896040516118ae9291906148fd565b60405180910390a35050505050505050565b600d5f9054906101000a900473ffffffffffffffffffffffffffffffffffffffff1681565b6118ed611a4f565b73ffffffffffffffffffffffffffffffffffffffff163373ffffffffffffffffffffffffffffffffffffffff161461195c57336040517fd7f73334000000000000000000000000000000000000000000000000000000008152600401611953919061420d565b60405180910390fd5b61196e8161196990614c03565b613231565b50565b7f0d823319708ab99ec915efd4f7e03d11ca1790918e8f04cd14100aceca2aa9ff5f1b81565b5f600260089054906101000a900473ffffffffffffffffffffffffffffffffffffffff16905090565b6015602052805f5260405f205f915054906101000a900460ff1681565b6016602052805f5260405f205f915090505481565b6119fa6128ac565b8060085f8467ffffffffffffffff1667ffffffffffffffff1681526020019081526020015f205f6101000a81548160ff0219169083151502179055505050565b6001602052805f5260405f205f915090505481565b5f7f0000000000000000000000000000000000000000000000000000000000000000905090565b60135f8681526020019081526020015f205f9054906101000a900460ff1680611ab9575060175f8681526020019081526020015f205f9054906101000a900460ff165b15611afb57846040517f6d20dfa2000000000000000000000000000000000000000000000000000000008152600401611af29190613e57565b60405180910390fd5b611b0484611450565b158015611b175750611b1584612572565b155b15611b5957836040517fd368facf000000000000000000000000000000000000000000000000000000008152600401611b509190613e57565b60405180910390fd5b5f600367ffffffffffffffff811115611b7557611b746145c4565b5b604051908082528060200260200182016040528015611ba35781602001602082028036833780820191505090505b50905083815f81518110611bba57611bb96145f1565b5b6020026020010181815250508581600181518110611bdb57611bda6145f1565b5b6020026020010181815250508481600281518110611bfc57611bfb6145f1565b5b602002602001018181525050600f5f9054906101000a900473ffffffffffffffffffffffffffffffffffffffff1673ffffffffffffffffffffffffffffffffffffffff1663ea50d0e48989846040518463ffffffff1660e01b8152600401611c669392919061472f565b602060405180830381865afa158015611c81573d5f5f3e3d5ffd5b505050506040513d601f19601f82011682018060405250810190611ca5919061477a565b611cdb576040517f48bd1d1a00000000000000000000000000000000000000000000000000000000815260040160405180910390fd5b600160135f8881526020019081526020015f205f6101000a81548160ff021916908315150217905550600d5f9054906101000a900473ffffffffffffffffffffffffffffffffffffffff1673ffffffffffffffffffffffffffffffffffffffff1663a9059cbb83600c5f9054906101000a900467ffffffffffffffff166040518363ffffffff1660e01b8152600401611d759291906147d5565b6020604051808303815f875af1158015611d91573d5f5f3e3d5ffd5b505050506040513d601f19601f82011682018060405250810190611db5919061477a565b50827f9fbbeb11626fd35c434c26f289eb90058663b53e8d69a058c2ea81458b6adc0c85604051611de69190613e57565b60405180910390a25050505050505050565b600c60089054906101000a900473ffffffffffffffffffffffffffffffffffffffff1681565b600e5f9054906101000a900473ffffffffffffffffffffffffffffffffffffffff1681565b601e81565b611e506128ac565b8060095f8467ffffffffffffffff1667ffffffffffffffff1681526020019081526020015f205f6101000a81548160ff0219169083151502179055505050565b5f5f8203611ec2577f0d823319708ab99ec915efd4f7e03d11ca1790918e8f04cd14100aceca2aa9ff5f1b905061250d565b60018203611ef4577f170a9598425eb05eb8dc06986c6afc717811e874326a79576c02d338bdf14f135f1b905061250d565b60028203611f26577f273b1a40397b618dac2fc66ceb71399a3e1a60341e546e053cbfa5995e824caf5f1b905061250d565b60038203611f58577f16bf9b1fb2dfa9d88cfb1752d6937a1594d257c2053dff3cb971016bfcffe2a15f1b905061250d565b60048203611f8a577f1288271e1f93a29fa6e748b7468a77a9b8fc3db6b216ce5fc2601fc3e9bd6b365f1b905061250d565b60058203611fbc577f1d47548adec1068354d163be4ffa348ca89f079b039c9191378584abd79edeca5f1b905061250d565b60068203611fee577f0b98a89e6827ef697b8fb2e280a2342d61db1eb5efc229f5f4a77fb333b80bef5f1b905061250d565b60078203612020577f231555e37e6b206f43fdcd4d660c47442d76aab1ef552aef6db45f3f9cf2e9555f1b905061250d565b60088203612052577f03d0dc8c92e2844abcc5fdefe8cb67d93034de0862943990b09c6b8e3fa27a865f1b905061250d565b60098203612084577f1d51ac275f47f10e592b8e690fd3b28a76106893ac3e60cd7b2a3a443f4e83555f1b905061250d565b600a82036120b6577f16b671eb844a8e4e463e820e26560357edee4ecfdbf5d7b0a28799911505088d5f1b905061250d565b600b82036120e8577f115ea0c2f132c5914d5bb737af6eed04115a3896f0d65e12e761ca560083da155f1b905061250d565b600c820361211a577f139a5b42099806c76efb52da0ec1dde06a836bf6f87ef7ab4bac7d00637e28f05f1b905061250d565b600d820361214c577f0804853482335a6533eb6a4ddfc215a08026db413d247a7695e807e38debea8e5f1b905061250d565b600e820361217e577f2f0b264ab5f5630b591af93d93ec2dfed28eef017b251e40905cdf79836898035f1b905061250d565b600f82036121b0577f170fc161bf1b9610bf196c173bdae82c4adfd93888dc317f5010822a3ba9ebee5f1b905061250d565b601082036121e2577f0b2e7665b17622cc0243b6fa35110aa7dd0ee3cc9409650172aa786ca59714395f1b905061250d565b60118203612214577f12d5a033cbeff854c5ba0c5628ac4628104be6ab370699a1b2b4209e518b0ac55f1b905061250d565b60128203612246577f1bc59846eb7eafafc85ba9a99a89562763735322e4255b7c1788a8fe8b90bf5d5f1b905061250d565b60138203612278577f1b9421fbd79f6972a348a3dd4721781ec25a5d8d27342942ae00aba80a3904d45f1b905061250d565b601482036122aa577f087fde1c4c9c27c347f347083139eee8759179d255ec8381c02298d3d6ccd2335f1b905061250d565b601582036122dc577f1e26b1884cb500b5e6bbfdeedbdca34b961caf3fa9839ea794bfc7f87d10b3f15f1b905061250d565b6016820361230e577f09fc1a538b88bda55a53253c62c153e67e8289729afd9b8bfd3f46f5eecd5a725f1b905061250d565b60178203612340577f14cd0edec3423652211db5210475a230ca4771cd1e45315bcd6ea640f14077e25f1b905061250d565b60188203612372577f1d776a76bc76f4305ef0b0b27a58a9565864fe1b9f2a198e8247b3e599e036ca5f1b905061250d565b601982036123a4577f1f93e3103fed2d3bd056c3ac49b4a0728578be33595959788fa25514cdb5d42f5f1b905061250d565b601a82036123d6577f138b0576ee7346fb3f6cfb632f92ae206395824b9333a183c15470404c977a3b5f1b905061250d565b601b8203612408577f0745de8522abfcd24bd50875865592f73a190070b4cb3d8976e3dbff8fdb7f3d5f1b905061250d565b601c820361243a577f2ffb8c798b9dd2645e9187858cb92a86c86dcd1138f5d610c33df2696f5f68605f1b905061250d565b601d820361246c577f2612a1395168260c9999287df0e3c3f1b0d8e008e90cd15941e4c2df08a68a5a5f1b905061250d565b601e820361249e577f10ebedce66a910039c8edb2cd832d6a9857648ccff5e99b5d08009b44b088edf5f1b905061250d565b601f82036124d0577f213fb841f9de06958cf4403477bdbff7c59d6249daabfee147f853db7c8080825f1b905061250d565b816040517f76de02380000000000000000000000000000000000000000000000000000000081526004016125049190613f2d565b60405180910390fd5b919050565b61251a6128ac565b80600a5f8473ffffffffffffffffffffffffffffffffffffffff1673ffffffffffffffffffffffffffffffffffffffff1681526020019081526020015f205f6101000a81548160ff0219169083151502179055505050565b5f5f5f1b8203612584575f905061261e565b5f600b60189054906101000a900463ffffffff1690505f600b60149054906101000a900463ffffffff1690505f8290505b60165f8263ffffffff1663ffffffff1681526020019081526020015f205485036125e5576001935050505061261e565b5f8163ffffffff16036125f6578190505b808061260190614829565b9150508263ffffffff168163ffffffff16036125b5575f93505050505b919050565b5f602052805f5260405f205f915090505481565b60155f8481526020019081526020015f205f9054906101000a900460ff161561268c576040517fbd3d733500000000000000000000000000000000000000000000000000000000815260040160405180910390fd5b5f600c5f9054906101000a900467ffffffffffffffff1690505f600d5f9054906101000a900473ffffffffffffffffffffffffffffffffffffffff1690508073ffffffffffffffffffffffffffffffffffffffff166323b872dd3330856040518463ffffffff1660e01b8152600401612707939291906148c8565b6020604051808303815f875af1158015612723573d5f5f3e3d5ffd5b505050506040513d601f19601f82011682018060405250810190612747919061477a565b50600160155f8781526020019081526020015f205f6101000a81548160ff0219169083151502179055505f61277b866129c4565b905084156127d6576127d460115f6005811061279a576127996145f1565b5b600491828204019190066008029054906101000a900467ffffffffffffffff16856127c361107b565b858767ffffffffffffffff16612bd1565b505b857f4eebf2f93f02dcd82a8e96e0b6a18ca6dd324105b34264fc61527383ce9b8783826040516128069190613c69565b60405180910390a2505050505050565b60105f9054906101000a900473ffffffffffffffffffffffffffffffffffffffff1681565b6128436128ac565b61284c81613262565b50565b6014602052805f5260405f205f915054906101000a900460ff1681565b600f5f9054906101000a900473ffffffffffffffffffffffffffffffffffffffff1681565b5f81905061289e8161338f565b919050565b5f819050919050565b600260089054906101000a900473ffffffffffffffffffffffffffffffffffffffff1673ffffffffffffffffffffffffffffffffffffffff163373ffffffffffffffffffffffffffffffffffffffff161461293c576040517f08c379a000000000000000000000000000000000000000000000000000000000815260040161293390614c5f565b60405180910390fd5b565b6129bf8363a9059cbb60e01b848460405160240161295d929190614c7d565b604051602081830303815290604052907bffffffffffffffffffffffffffffffffffffffffffffffffffffffff19166020820180517bffffffffffffffffffffffffffffffffffffffffffffffffffffffff83818316178352505050506133f4565b505050565b5f5f600260049054906101000a900463ffffffff1690507f00000000000000000000000000000000000000000000000000000000000000006002612a089190614dd3565b63ffffffff168163ffffffff1603612a5757806040517f341df5fc000000000000000000000000000000000000000000000000000000008152600401612a4e9190613c69565b60405180910390fd5b5f8190505f8490505f5f5f5f90505b7f000000000000000000000000000000000000000000000000000000000000000063ffffffff168163ffffffff161015612b2c575f600286612aa89190614e2e565b63ffffffff1603612ae757839250612ac58163ffffffff16611e90565b9150835f5f8363ffffffff1681526020019081526020015f2081905550612b04565b5f5f8263ffffffff1681526020019081526020015f205492508391505b612b0e8383610cb9565b9350600285612b1d9190614e5e565b94508080600101915050612a66565b505f601e600160025f9054906101000a900463ffffffff16612b4e9190614e8e565b612b589190614e2e565b90508060025f6101000a81548163ffffffff021916908363ffffffff1602179055508360015f8363ffffffff1681526020019081526020015f2081905550600186612ba39190614e8e565b600260046101000a81548163ffffffff021916908363ffffffff160217905550859650505050505050919050565b5f5f612c0186868686600b5f9054906101000a900473ffffffffffffffffffffffffffffffffffffffff166134b9565b90505f3073ffffffffffffffffffffffffffffffffffffffff1663b0f479a16040518163ffffffff1660e01b8152600401602060405180830381865afa158015612c4d573d5f5f3e3d5ffd5b505050506040513d601f19601f82011682018060405250810190612c719190614ed9565b90505f8173ffffffffffffffffffffffffffffffffffffffff166320487ded8a856040518363ffffffff1660e01b8152600401612caf9291906150df565b602060405180830381865afa158015612cca573d5f5f3e3d5ffd5b505050506040513d601f19601f82011682018060405250810190612cee9190614523565b90505f819050600b5f9054906101000a900473ffffffffffffffffffffffffffffffffffffffff1673ffffffffffffffffffffffffffffffffffffffff168773ffffffffffffffffffffffffffffffffffffffff1603612d57578581612d54919061510d565b90505b600b5f9054906101000a900473ffffffffffffffffffffffffffffffffffffffff1673ffffffffffffffffffffffffffffffffffffffff166370a08231306040518263ffffffff1660e01b8152600401612db1919061420d565b602060405180830381865afa158015612dcc573d5f5f3e3d5ffd5b505050506040513d601f19601f82011682018060405250810190612df09190614523565b811115612ece57600b5f9054906101000a900473ffffffffffffffffffffffffffffffffffffffff1673ffffffffffffffffffffffffffffffffffffffff166370a08231306040518263ffffffff1660e01b8152600401612e51919061420d565b602060405180830381865afa158015612e6c573d5f5f3e3d5ffd5b505050506040513d601f19601f82011682018060405250810190612e909190614523565b816040517f8f0f4206000000000000000000000000000000000000000000000000000000008152600401612ec5929190615140565b60405180910390fd5b600b5f9054906101000a900473ffffffffffffffffffffffffffffffffffffffff1673ffffffffffffffffffffffffffffffffffffffff1663095ea7b384836040518363ffffffff1660e01b8152600401612f2a929190614c7d565b6020604051808303815f875af1158015612f46573d5f5f3e3d5ffd5b505050506040513d601f19601f82011682018060405250810190612f6a919061477a565b50600b5f9054906101000a900473ffffffffffffffffffffffffffffffffffffffff1673ffffffffffffffffffffffffffffffffffffffff168773ffffffffffffffffffffffffffffffffffffffff1614158015612ff457505f73ffffffffffffffffffffffffffffffffffffffff168773ffffffffffffffffffffffffffffffffffffffff1614155b15613139575f8773ffffffffffffffffffffffffffffffffffffffff166370a08231306040518263ffffffff1660e01b8152600401613033919061420d565b602060405180830381865afa15801561304e573d5f5f3e3d5ffd5b505050506040513d601f19601f820116820180604052508101906130729190614523565b9050808711156130bb5780876040517f8f0f42060000000000000000000000000000000000000000000000000000000081526004016130b2929190615140565b60405180910390fd5b8773ffffffffffffffffffffffffffffffffffffffff1663095ea7b385896040518363ffffffff1660e01b81526004016130f6929190614c7d565b6020604051808303815f875af1158015613112573d5f5f3e3d5ffd5b505050506040513d601f19601f82011682018060405250810190613136919061477a565b50505b8273ffffffffffffffffffffffffffffffffffffffff166396f4e9f98b866040518363ffffffff1660e01b81526004016131749291906150df565b6020604051808303815f875af1158015613190573d5f5f3e3d5ffd5b505050506040513d601f19601f820116820180604052508101906131b4919061517b565b94508967ffffffffffffffff16857f7b4930aecf647d110f1704fe064cb211a501b4cc91b64d0175832ac1156433038b8b8b8b600b5f9054906101000a900473ffffffffffffffffffffffffffffffffffffffff168960405161321c969594939291906151a6565b60405180910390a35050505095945050505050565b5f816060015180602001905181019061324a919061517b565b9050613255816136a8565b61325e8261373b565b5050565b3373ffffffffffffffffffffffffffffffffffffffff168173ffffffffffffffffffffffffffffffffffffffff16036132d0576040517f08c379a00000000000000000000000000000000000000000000000000000000081526004016132c79061524f565b60405180910390fd5b8060035f6101000a81548173ffffffffffffffffffffffffffffffffffffffff021916908373ffffffffffffffffffffffffffffffffffffffff1602179055508073ffffffffffffffffffffffffffffffffffffffff16600260089054906101000a900473ffffffffffffffffffffffffffffffffffffffff1673ffffffffffffffffffffffffffffffffffffffff167fed8889f560326eb138920d842192f0eb3dd22b4f139c87a2c57538e05bae127860405160405180910390a350565b7f30644e72e131a029b85045b68181585d2833e84879b9709143e1f593f000000181106133f1576040517f08c379a00000000000000000000000000000000000000000000000000000000081526004016133e8906152b7565b60405180910390fd5b50565b5f613455826040518060400160405280602081526020017f5361666545524332303a206c6f772d6c6576656c2063616c6c206661696c65648152508573ffffffffffffffffffffffffffffffffffffffff166138d19092919063ffffffff16565b90505f815111156134b45780806020019051810190613474919061477a565b6134b3576040517f08c379a00000000000000000000000000000000000000000000000000000000081526004016134aa90615345565b60405180910390fd5b5b505050565b6134c1613b15565b60605f73ffffffffffffffffffffffffffffffffffffffff168573ffffffffffffffffffffffffffffffffffffffff16141580156134fe57505f84115b156135a857600167ffffffffffffffff81111561351e5761351d6145c4565b5b60405190808252806020026020018201604052801561355757816020015b613544613b59565b81526020019060019003908161353c5790505b50905060405180604001604052808673ffffffffffffffffffffffffffffffffffffffff16815260200185815250815f81518110613598576135976145f1565b5b60200260200101819052506135ff565b5f67ffffffffffffffff8111156135c2576135c16145c4565b5b6040519080825280602002602001820160405280156135fb57816020015b6135e8613b59565b8152602001906001900390816135e05790505b5090505b6040518060a001604052808860405160200161361b919061420d565b6040516020818303038152906040528152602001876040516020016136409190613e57565b60405160208183030381529060405281526020018281526020018473ffffffffffffffffffffffffffffffffffffffff168152602001613699604051806040016040528062030d408152602001600115158152506138e8565b81525091505095945050505050565b600b60149054906101000a900463ffffffff166001600b60189054906101000a900463ffffffff166136da9190614e8e565b6136e49190614e2e565b600b60186101000a81548163ffffffff021916908363ffffffff1602179055508060165f600b60189054906101000a900463ffffffff1663ffffffff1663ffffffff1681526020019081526020015f208190555050565b805f0151600481905550806060015180602001905181019061375d919061517b565b6007819055505f60055f6101000a81548173ffffffffffffffffffffffffffffffffffffffff021916908373ffffffffffffffffffffffffffffffffffffffff1602179055505f6006819055505f81608001515111156138425780608001515f815181106137ce576137cd6145f1565b5b60200260200101515f015160055f6101000a81548173ffffffffffffffffffffffffffffffffffffffff021916908373ffffffffffffffffffffffffffffffffffffffff16021790555080608001515f8151811061382f5761382e6145f1565b5b6020026020010151602001516006819055505b806020015167ffffffffffffffff16815f01517f47db43efa9b1440e39104887f88e98a927f79d8dca5f9075a9607d0111a9154f836040015180602001905181019061388e919061539e565b60075460055f9054906101000a900473ffffffffffffffffffffffffffffffffffffffff166006546040516138c694939291906153e9565b60405180910390a350565b60606138df84845f85613967565b90509392505050565b606063181dcf1060e01b826040516024016139039190615468565b604051602081830303815290604052907bffffffffffffffffffffffffffffffffffffffffffffffffffffffff19166020820180517bffffffffffffffffffffffffffffffffffffffffffffffffffffffff83818316178352505050509050919050565b6060824710156139ac576040517f08c379a00000000000000000000000000000000000000000000000000000000081526004016139a3906154f1565b60405180910390fd5b5f5f8673ffffffffffffffffffffffffffffffffffffffff1685876040516139d4919061553f565b5f6040518083038185875af1925050503d805f8114613a0e576040519150601f19603f3d011682016040523d82523d5f602084013e613a13565b606091505b5091509150613a2487838387613a30565b92505050949350505050565b60608315613a91575f835103613a8957613a4985613aa4565b613a88576040517f08c379a0000000000000000000000000000000000000000000000000000000008152600401613a7f9061559f565b60405180910390fd5b5b829050613a9c565b613a9b8383613ac6565b5b949350505050565b5f5f8273ffffffffffffffffffffffffffffffffffffffff163b119050919050565b5f82511115613ad85781518083602001fd5b806040517f08c379a0000000000000000000000000000000000000000000000000000000008152600401613b0c91906155ff565b60405180910390fd5b6040518060a001604052806060815260200160608152602001606081526020015f73ffffffffffffffffffffffffffffffffffffffff168152602001606081525090565b60405180604001604052805f73ffffffffffffffffffffffffffffffffffffffff1681526020015f81525090565b5f604051905090565b5f5ffd5b5f5ffd5b5f7fffffffff0000000000000000000000000000000000000000000000000000000082169050919050565b613bcc81613b98565b8114613bd6575f5ffd5b50565b5f81359050613be781613bc3565b92915050565b5f60208284031215613c0257613c01613b90565b5b5f613c0f84828501613bd9565b91505092915050565b5f8115159050919050565b613c2c81613c18565b82525050565b5f602082019050613c455f830184613c23565b92915050565b5f63ffffffff82169050919050565b613c6381613c4b565b82525050565b5f602082019050613c7c5f830184613c5a565b92915050565b5f819050919050565b613c9481613c82565b8114613c9e575f5ffd5b50565b5f81359050613caf81613c8b565b92915050565b5f60208284031215613cca57613cc9613b90565b5b5f613cd784828501613ca1565b91505092915050565b5f67ffffffffffffffff82169050919050565b613cfc81613ce0565b82525050565b5f602082019050613d155f830184613cf3565b92915050565b5f819050919050565b613d2d81613d1b565b82525050565b5f73ffffffffffffffffffffffffffffffffffffffff82169050919050565b5f613d5c82613d33565b9050919050565b613d6c81613d52565b82525050565b613d7b81613c82565b82525050565b5f608082019050613d945f830187613d24565b613da16020830186613d24565b613dae6040830185613d63565b613dbb6060830184613d72565b95945050505050565b613dcd81613d1b565b8114613dd7575f5ffd5b50565b5f81359050613de881613dc4565b92915050565b5f60208284031215613e0357613e02613b90565b5b5f613e1084828501613dda565b91505092915050565b5f5f60408385031215613e2f57613e2e613b90565b5b5f613e3c85828601613dda565b9250506020613e4d85828601613dda565b9150509250929050565b5f602082019050613e6a5f830184613d24565b92915050565b613e7981613d52565b8114613e83575f5ffd5b50565b5f81359050613e9481613e70565b92915050565b5f5f60408385031215613eb057613eaf613b90565b5b5f613ebd85828601613e86565b9250506020613ece85828601613e86565b9150509250929050565b613ee181613ce0565b8114613eeb575f5ffd5b50565b5f81359050613efc81613ed8565b92915050565b5f60208284031215613f1757613f16613b90565b5b5f613f2484828501613eee565b91505092915050565b5f602082019050613f405f830184613d72565b92915050565b5f60208284031215613f5b57613f5a613b90565b5b5f613f6884828501613e86565b91505092915050565b5f5ffd5b5f5ffd5b5f5ffd5b5f5f83601f840112613f9257613f91613f71565b5b8235905067ffffffffffffffff811115613faf57613fae613f75565b5b602083019150836001820283011115613fcb57613fca613f79565b5b9250929050565b5f5f5f5f5f60808688031215613feb57613fea613b90565b5b5f86013567ffffffffffffffff81111561400857614007613b94565b5b61401488828901613f7d565b9550955050602061402788828901613dda565b935050604061403888828901613dda565b925050606061404988828901613e86565b9150509295509295909350565b5f819050919050565b5f61407961407461406f84613d33565b614056565b613d33565b9050919050565b5f61408a8261405f565b9050919050565b5f61409b82614080565b9050919050565b6140ab81614091565b82525050565b5f6020820190506140c45f8301846140a2565b92915050565b6140d381613c18565b81146140dd575f5ffd5b50565b5f813590506140ee816140ca565b92915050565b5f5f5f5f5f60a0868803121561410d5761410c613b90565b5b5f61411a88828901613dda565b955050602061412b88828901613dda565b945050604061413c88828901613dda565b935050606061414d888289016140e0565b925050608061415e88828901613e86565b9150509295509295909350565b5f61417582614080565b9050919050565b6141858161416b565b82525050565b5f60208201905061419e5f83018461417c565b92915050565b5f5ffd5b5f60a082840312156141bd576141bc6141a4565b5b81905092915050565b5f602082840312156141db576141da613b90565b5b5f82013567ffffffffffffffff8111156141f8576141f7613b94565b5b614204848285016141a8565b91505092915050565b5f6020820190506142205f830184613d63565b92915050565b61422f81613c4b565b8114614239575f5ffd5b50565b5f8135905061424a81614226565b92915050565b5f6020828403121561426557614264613b90565b5b5f6142728482850161423c565b91505092915050565b5f5f6040838503121561429157614290613b90565b5b5f61429e85828601613eee565b92505060206142af858286016140e0565b9150509250929050565b5f5f5f5f5f5f5f60c0888a0312156142d4576142d3613b90565b5b5f88013567ffffffffffffffff8111156142f1576142f0613b94565b5b6142fd8a828b01613f7d565b975097505060206143108a828b01613dda565b95505060406143218a828b01613dda565b94505060606143328a828b01613dda565b93505060806143438a828b01613dda565b92505060a06143548a828b01613e86565b91505092959891949750929550565b5f61436d82614080565b9050919050565b61437d81614363565b82525050565b5f6020820190506143965f830184614374565b92915050565b5f5f604083850312156143b2576143b1613b90565b5b5f6143bf85828601613e86565b92505060206143d0858286016140e0565b9150509250929050565b5f5f5f606084860312156143f1576143f0613b90565b5b5f6143fe86828701613dda565b935050602061440f868287016140e0565b925050604061442086828701613e86565b9150509250925092565b5f61443482614080565b9050919050565b6144448161442a565b82525050565b5f60208201905061445d5f83018461443b565b92915050565b5f61447d61447861447384613c82565b614056565b613c82565b9050919050565b61448d81614463565b82525050565b5f6040820190506144a65f830185614484565b6144b36020830184614484565b9392505050565b6144c381613c82565b81146144cd575f5ffd5b50565b5f815190506144de816144ba565b92915050565b5f602082840312156144f9576144f8613b90565b5b5f614506848285016144d0565b91505092915050565b5f8151905061451d81613c8b565b92915050565b5f6020828403121561453857614537613b90565b5b5f6145458482850161450f565b91505092915050565b5f81905092915050565b50565b5f6145665f8361454e565b915061457182614558565b5f82019050919050565b5f6145858261455b565b9150819050919050565b5f6060820190506145a25f830186613d63565b6145af6020830185613d63565b6145bc6040830184613d72565b949350505050565b7f4e487b71000000000000000000000000000000000000000000000000000000005f52604160045260245ffd5b7f4e487b71000000000000000000000000000000000000000000000000000000005f52603260045260245ffd5b5f82825260208201905092915050565b828183375f83830152505050565b5f601f19601f8301169050919050565b5f614657838561461e565b935061466483858461462e565b61466d8361463c565b840190509392505050565b5f81519050919050565b5f82825260208201905092915050565b5f819050602082019050919050565b6146aa81613d1b565b82525050565b5f6146bb83836146a1565b60208301905092915050565b5f602082019050919050565b5f6146dd82614678565b6146e78185614682565b93506146f283614692565b805f5b8381101561472257815161470988826146b0565b9750614714836146c7565b9250506001810190506146f5565b5085935050505092915050565b5f6040820190508181035f83015261474881858761464c565b9050818103602083015261475c81846146d3565b9050949350505050565b5f81519050614774816140ca565b92915050565b5f6020828403121561478f5761478e613b90565b5b5f61479c84828501614766565b91505092915050565b5f6147bf6147ba6147b584613ce0565b614056565b613c82565b9050919050565b6147cf816147a5565b82525050565b5f6040820190506147e85f830185613d63565b6147f560208301846147c6565b9392505050565b7f4e487b71000000000000000000000000000000000000000000000000000000005f52601160045260245ffd5b5f61483382613c4b565b91505f8203614845576148446147fc565b5b600182039050919050565b5f82825260208201905092915050565b7f4d7573742062652070726f706f736564206f776e6572000000000000000000005f82015250565b5f614894601683614850565b915061489f82614860565b602082019050919050565b5f6020820190508181035f8301526148c181614888565b9050919050565b5f6060820190506148db5f830186613d63565b6148e86020830185613d63565b6148f560408301846147c6565b949350505050565b5f6040820190506149105f830185613c5a565b61491d6020830184613d24565b9392505050565b5f5ffd5b6149318261463c565b810181811067ffffffffffffffff821117156149505761494f6145c4565b5b80604052505050565b5f614962613b87565b905061496e8282614928565b919050565b5f5ffd5b5f5ffd5b5f67ffffffffffffffff821115614995576149946145c4565b5b61499e8261463c565b9050602081019050919050565b5f6149bd6149b88461497b565b614959565b9050828152602081018484840111156149d9576149d8614977565b5b6149e484828561462e565b509392505050565b5f82601f830112614a00576149ff613f71565b5b8135614a108482602086016149ab565b91505092915050565b5f67ffffffffffffffff821115614a3357614a326145c4565b5b602082029050602081019050919050565b5f60408284031215614a5957614a58614924565b5b614a636040614959565b90505f614a7284828501613e86565b5f830152506020614a8584828501613ca1565b60208301525092915050565b5f614aa3614a9e84614a19565b614959565b90508083825260208201905060408402830185811115614ac657614ac5613f79565b5b835b81811015614aef5780614adb8882614a44565b845260208401935050604081019050614ac8565b5050509392505050565b5f82601f830112614b0d57614b0c613f71565b5b8135614b1d848260208601614a91565b91505092915050565b5f60a08284031215614b3b57614b3a614924565b5b614b4560a0614959565b90505f614b5484828501613dda565b5f830152506020614b6784828501613eee565b602083015250604082013567ffffffffffffffff811115614b8b57614b8a614973565b5b614b97848285016149ec565b604083015250606082013567ffffffffffffffff811115614bbb57614bba614973565b5b614bc7848285016149ec565b606083015250608082013567ffffffffffffffff811115614beb57614bea614973565b5b614bf784828501614af9565b60808301525092915050565b5f614c0e3683614b26565b9050919050565b7f4f6e6c792063616c6c61626c65206279206f776e6572000000000000000000005f82015250565b5f614c49601683614850565b9150614c5482614c15565b602082019050919050565b5f6020820190508181035f830152614c7681614c3d565b9050919050565b5f604082019050614c905f830185613d63565b614c9d6020830184613d72565b9392505050565b5f8160011c9050919050565b5f5f8291508390505b6001851115614cf957808604811115614cd557614cd46147fc565b5b6001851615614ce45780820291505b8081029050614cf285614ca4565b9450614cb9565b94509492505050565b5f82614d115760019050614dcc565b81614d1e575f9050614dcc565b8160018114614d345760028114614d3e57614d6d565b6001915050614dcc565b60ff841115614d5057614d4f6147fc565b5b8360020a915084821115614d6757614d666147fc565b5b50614dcc565b5060208310610133831016604e8410600b8410161715614da25782820a905083811115614d9d57614d9c6147fc565b5b614dcc565b614daf8484846001614cb0565b92509050818404811115614dc657614dc56147fc565b5b81810290505b9392505050565b5f614ddd82613c4b565b9150614de883613c4b565b9250614df963ffffffff8484614d02565b905092915050565b7f4e487b71000000000000000000000000000000000000000000000000000000005f52601260045260245ffd5b5f614e3882613c4b565b9150614e4383613c4b565b925082614e5357614e52614e01565b5b828206905092915050565b5f614e6882613c4b565b9150614e7383613c4b565b925082614e8357614e82614e01565b5b828204905092915050565b5f614e9882613c4b565b9150614ea383613c4b565b9250828201905063ffffffff811115614ebf57614ebe6147fc565b5b92915050565b5f81519050614ed381613e70565b92915050565b5f60208284031215614eee57614eed613b90565b5b5f614efb84828501614ec5565b91505092915050565b5f81519050919050565b5f82825260208201905092915050565b8281835e5f83830152505050565b5f614f3682614f04565b614f408185614f0e565b9350614f50818560208601614f1e565b614f598161463c565b840191505092915050565b5f81519050919050565b5f82825260208201905092915050565b5f819050602082019050919050565b614f9681613d52565b82525050565b614fa581613c82565b82525050565b604082015f820151614fbf5f850182614f8d565b506020820151614fd26020850182614f9c565b50505050565b5f614fe38383614fab565b60408301905092915050565b5f602082019050919050565b5f61500582614f64565b61500f8185614f6e565b935061501a83614f7e565b805f5b8381101561504a5781516150318882614fd8565b975061503c83614fef565b92505060018101905061501d565b5085935050505092915050565b5f60a083015f8301518482035f8601526150718282614f2c565b9150506020830151848203602086015261508b8282614f2c565b915050604083015184820360408601526150a58282614ffb565b91505060608301516150ba6060860182614f8d565b50608083015184820360808601526150d28282614f2c565b9150508091505092915050565b5f6040820190506150f25f830185613cf3565b81810360208301526151048184615057565b90509392505050565b5f61511782613c82565b915061512283613c82565b925082820190508082111561513a576151396147fc565b5b92915050565b5f6040820190506151535f830185613d72565b6151606020830184613d72565b9392505050565b5f8151905061517581613dc4565b92915050565b5f602082840312156151905761518f613b90565b5b5f61519d84828501615167565b91505092915050565b5f60c0820190506151b95f830189613d63565b6151c66020830188613d24565b6151d36040830187613d63565b6151e06060830186613d72565b6151ed6080830185613d63565b6151fa60a0830184613d72565b979650505050505050565b7f43616e6e6f74207472616e7366657220746f2073656c660000000000000000005f82015250565b5f615239601783614850565b915061524482615205565b602082019050919050565b5f6020820190508181035f8301526152668161522d565b9050919050565b7f4669656c643a20696e70757420697320746f6f206c61726765000000000000005f82015250565b5f6152a1601983614850565b91506152ac8261526d565b602082019050919050565b5f6020820190508181035f8301526152ce81615295565b9050919050565b7f5361666545524332303a204552433230206f7065726174696f6e20646964206e5f8201527f6f74207375636365656400000000000000000000000000000000000000000000602082015250565b5f61532f602a83614850565b915061533a826152d5565b604082019050919050565b5f6020820190508181035f83015261535c81615323565b9050919050565b5f61536d82613d33565b9050919050565b61537d81615363565b8114615387575f5ffd5b50565b5f8151905061539881615374565b92915050565b5f602082840312156153b3576153b2613b90565b5b5f6153c08482850161538a565b91505092915050565b5f6153d382614080565b9050919050565b6153e3816153c9565b82525050565b5f6080820190506153fc5f8301876153da565b6154096020830186613d24565b6154166040830185613d63565b6154236060830184613d72565b95945050505050565b61543581613c18565b82525050565b604082015f82015161544f5f850182614f9c565b506020820151615462602085018261542c565b50505050565b5f60408201905061547b5f83018461543b565b92915050565b7f416464726573733a20696e73756666696369656e742062616c616e636520666f5f8201527f722063616c6c0000000000000000000000000000000000000000000000000000602082015250565b5f6154db602683614850565b91506154e682615481565b604082019050919050565b5f6020820190508181035f830152615508816154cf565b9050919050565b5f61551982614f04565b615523818561454e565b9350615533818560208601614f1e565b80840191505092915050565b5f61554a828461550f565b915081905092915050565b7f416464726573733a2063616c6c20746f206e6f6e2d636f6e74726163740000005f82015250565b5f615589601d83614850565b915061559482615555565b602082019050919050565b5f6020820190508181035f8301526155b68161557d565b9050919050565b5f81519050919050565b5f6155d1826155bd565b6155db8185614850565b93506155eb818560208601614f1e565b6155f48161463c565b840191505092915050565b5f6020820190508181035f83015261561781846155c7565b90509291505056fea2646970667358221220b6e72b49c2f44f6ed264a7310bb2d162ecb8523c0335a0f35c7e7341bace002664736f6c634300081e0033",
    "linkReferences": {},
    "deployedLinkReferences": {},
    "immutableReferences": {
        "14": [
            {
                "length": 32,
                "start": 6738
            }
        ],
        "20177": [
            {
                "length": 32,
                "start": 3467
            },
            {
                "length": 32,
                "start": 5349
            }
        ],
        "20179": [
            {
                "length": 32,
                "start": 5385
            },
            {
                "length": 32,
                "start": 10717
            },
            {
                "length": 32,
                "start": 10856
            }
        ]
    },
    "inputSourceName": "project/contracts/ZtomicOptimized.sol",
    "buildInfoId": "solc-0_8_30-0174c10b2a40b542f0684a24a75e1a19d48d3f43"
}